:020000040800F2
:10000000780A002069020008151A00085D17000828
:100010008319000899060008F92100080000000073
:100020000000000000000000000000006D1D00083E
:100030005516000800000000891C0008691E000811
:10004000830200088302000883020008830200087C
:10005000830200088302000883020008830200086C
:10006000830200088302000883020008830200085C
:10007000830200088302000883020008830200084C
:10008000830200088302000883020008830200083C
:10009000B9080008830200088302000883020008F0
:1000A000830200088302000883020008830200081C
:1000B000830200088302000883020008830200080C
:1000C00083020008830200088302000883020008FC
:1000D000830200088302000883020008A5200008AC
:1000E00083020008830200088302000883020008DC
:1000F00083020008830200088302000883020008CC
:1001000083020008830200088302000883020008BB
:1001100045200008792000081D1F00088302000800
:100120008302000883020008E51400088302000827
:10013000830200088302000883020008830200088B
:10014000990A00088302000883020008830200085D
:10015000830200088302000883020008512100087E
:10016000830200088302000883020008830200085B
:10017000830200088302000883020008830200084B
:10018000830200088302000800F002F800F05CF827
:100190000AA090E8000C82448344AAF10107DA45E2
:1001A00001D100F051F8AFF2090EBAE80F0013F0D8
:1001B000010F18BFFB1A43F001031847242A00005F
:1001C000442A00000A444FF0000C10F8013B13F0E1
:1001D000070408BF10F8014B1D1108BF10F8015BA0
:1001E000641E05D010F8016B641E01F8016BF9D193
:1001F00013F0080F1EBF10F8014BAD1C0C1B09D1EA
:100200006D1E58BF01F801CBFAD505E014F8016B5B
:1002100001F8016B6D1EF9D59142D6D370470000ED
:100220000023002400250026103A28BF78C1FBD8FF
:10023000520728BF30C148BF0B6070471FB502F09E
:10024000C9FC1FBD10B510BD00F0A8F81146FFF79E
:10025000F5FF02F099FC00F0C6F803B4FFF7F2FFD7
:1002600003BC00F0CBF8000009488047094800476C
:10027000FEE7FEE7FEE7FEE7FEE7FEE7FEE7FEE756
:10028000FEE7FEE704480549054A064B70470000B3
:100290006D1E00088901000878040020780A0020FB
:1002A0007806002078060020032A40F2308010F003
:1002B000030C00F0158011F8013BBCF1020F624401
:1002C00098BF11F801CB00F8013B38BF11F8013B92
:1002D000A2F1040298BF00F801CB38BF00F8013B3F
:1002E00011F0030300F02880083AC0F0088051F8AC
:1002F000043B083A51F804CBA0E80810F5E7121DBA
:100300005CBF51F8043B40F8043BAFF30080D207D8
:1003100024BF11F8013B11F801CB48BF11F8012BA4
:1003200024BF00F8013B00F801CB48BF00F8012BC7
:10033000704770477047704710B5203AC0F00B8087
:10034000B1E81850203AA0E81850B1E81850A0E8D9
:100350001850BFF4F5AF5FEA027C24BFB1E8185033
:10036000A0E8185044BF18C918C0BDE810405FEAA3
:10037000827C24BF51F8043B40F8043B08BF70471F
:10038000D20728BF31F8023B48BF11F8012B28BF24
:1003900020F8023B48BF00F8012B7047754600F07B
:1003A00029F8AE4605006946534620F00700854609
:1003B00018B020B5FFF766FFBDE820404FF00006FB
:1003C0004FF000074FF000084FF0000B21F007013D
:1003D000AC46ACE8C009ACE8C009ACE8C009ACE880
:1003E000C0098D4670470446AFF300802046FFF7F2
:1003F00034FF000000487047140400200149182011
:10040000ABBEFEE7260002007047000010B50024D6
:1004100018E00E4810F8340020B1012803D002285B
:100420000DD10BE00BE0204600F0F2FE142002F0AC
:1004300081FA0220054901F8340000E000BF00BF46
:10044000601CC4B2052CE4DB10BD000024010020B8
:1004500070B504460D46601C1749097888422AD1B8
:1004600015480078012806D0022809D003280CD0AE
:10047000042816D10FE00121104801F062F911E0C3
:1004800002210E4801F05DF90CE04FF480610C4848
:1004900001F057F906E04FF40061094801F051F905
:1004A00000E000BF00BF07480078401C0549087005
:1004B00001200549087070BDA40200200000024020
:1004C00000040240A5020020A702002070B50546E6
:1004D0000C461646082E22D120785A2807D160787B
:1004E00028B9A07818B901200D4901F83500207805
:1004F0005A2814D16078092811D1A07878B9084811
:1005000000EBC5004088401C054901EBC50148804F
:10051000034800EBC500012142682846904770BDA2
:100520002401002010B54FF4A06001F0B1FA01F0F1
:10053000D3F901F0ABFB01F0EFF901F011F94FF441
:100540007A7002F0F7F901F0C5FC00F039F900F01B
:1005500027FA4FF4C86002F0EDF901F0F3FC10BD8A
:1005600010B5424890ED000ADFED410A20EE200A66
:100570004048D0ED060AF8EEE00A9FED3F1A00EE83
:10058000810A3A4880ED000A01213C4801F0CEF88A
:100590003B49087008460078012819D1394800788D
:1005A000B0B93948007818B90120374908700FE010
:1005B00035480078012804D0334890F90000401CE9
:1005C00018B900203049087002E000202E49087058
:1005D0002B4800782B4908702B480078012804D05C
:1005E000294890F90000401CA0B928480068401C28
:1005F00026490860084600684EF6602188420CD300
:1006000021480078404240B21F49087000201F492D
:10061000086002E000201D4908601D4890F8450070
:10062000012800D110BD184890F90000C0EB00105F
:1006300040001049C8610846D0ED070AF8EEE00A0C
:10064000B0EE600A13480949D1ED000A01F02AFA18
:10065000BDEEC00A074880ED090A0146898C08B240
:10066000002100F043F900BFDCE70000FC0000209F
:100670003333333F7C0200209A99993E00040240B4
:1006800000010020080100200101002004010020D9
:1006900024020020B800002000BFFEE710B5044689
:1006A0002068A0F2012006283AD2DFE800F0030714
:1006B0000C1116271C4801F061F932E01A48801C21
:1006C00001F05CF92DE01848801D01F057F928E091
:1006D0001548001D01F052F923E0207BE17A40EA41
:1006E000012012494861898A08B201F04DF90F4989
:1006F00088610D48001F01F041F912E0207BE17A8A
:1007000040EA012009490860A17B607B41EA0020A2
:1007100000B2064948600448801E01F02FF900E04D
:1007200000BF00BF10BD0000580200207C02002066
:1007300010B5044640F242222068811A904223D02C
:1007400009DCB0F5A87F0BD0B0F5107F0ED0A0F279
:10075000412070BB11E001291DD002292AD121E0DE
:1007600016480068401C1549086024E0A27A04F18C
:100770000B010020FFF7AAFE1DE0A27A04F10B0195
:100780000120FFF7A3FE16E0A27A04F10B0102207C
:10079000FFF79CFE0FE0A27A04F10B010320FFF7A4
:1007A00095FE08E0A27A04F10B010420FFF78EFE0B
:1007B00001E0FFE700BF00BF10BD00001C020020E9
:1007C00000B58BB00121084601F0A0FA01214806CE
:1007D00001F0ACFA09220B21354800F084FF092210
:1007E0000C21334800F07FFF4FF4C05002900220EC
:1007F0008DF80C0002A92E4800F02DFF14208DF872
:10080000040001208DF8050000208DF8060001206D
:100810008DF8070001A801F0FFF8264800F0A2F9C2
:1008200008A800F010FD00208DF826008DF82700A4
:100830008DF828008DF829008DF82A0001208DF808
:100840002B0000208DF822008DF8230008208DF861
:10085000240003208DF82500ADF8200008A91548D4
:1008600000F00DFB01208DF81A0000208DF81B0010
:1008700001208DF81C000020ADF81000ADF812002A
:10088000ADF81400ADF81600ADF8180001208DF891
:100890001D0004A800F082F901220221054800F0A1
:1008A000E5FA01221146034800F0E0FA0BB000BD62
:1008B000000002400064004000B585B002210A48F3
:1008C00000F0F0F970B10221074800F0F7F86A462D
:1008D0000021054800F05DFB6846FFF7DFFE684633
:1008E000FFF726FF05B000BD0064004030B585B0BD
:1008F00004460D4640F2FF10009000208DF80800DD
:100900008DF8090008208DF80A00200A8DF80B00E8
:10091000E1B28DF80C10290A8DF80D10E9B28DF8AE
:100920000E1000218DF80F108DF810108DF8111099
:100930008DF812106946024800F095FC05B030BDF4
:100940000064004010B5044622460021124800F021
:1009500020FB2068A0F20120062819D2DFE800F071
:1009600003070C1116170D4801F008F811E00B48A9
:10097000801C01F003F80CE00848001D00F0FEFFA9
:1009800007E00648801D00F0F9FF02E001E000E00A
:1009900000BF00BF10BD0000006800404C020020F6
:1009A00000B58BB00121022001F0B0F901218806C9
:1009B00001F0BCF909220C21354800F094FE09220F
:1009C0000D21334800F08FFE4FF44050029002207A
:1009D0008DF80C0002A92E4800F03DFE40208DF855
:1009E000040001208DF8050000208DF8060001208C
:1009F0008DF8070001A801F00FF8264800F0B2F8C2
:100A000008A800F020FC00208DF826008DF82700B3
:100A10008DF828008DF829008DF82A0001208DF826
:100A20002B0000208DF822008DF8230008208DF87F
:100A3000240003208DF82500ADF8200008A91548F2
:100A400000F01DFA0E208DF81A0000208DF81B0012
:100A500001208DF81C000020ADF81000ADF8120048
:100A6000ADF81400ADF81600ADF8180001208DF8AF
:100A70001D0004A800F092F801220221054800F0B0
:100A8000F5F901221146034800F0F0F90BB000BD62
:100A9000000402400068004000B585B0022106480D
:100AA00000F000F930B10221034800F007F8684671
:100AB000FFF748FF05B000BD00680040B1F5007FBA
:100AC0003AD00FDC202928D006DC01291CD00429CB
:100AD0001DD0082940D11DE0402921D0B1F5807FEB
:100AE0003AD126E0B1F5004F31D006DCB1F5806F88
:100AF00025D0B1F5006F2FD124E0B1F5803F12D0A1
:100B0000B1F5003F28D111E0154A826025E00822A6
:100B1000C26022E01022C2601FE0082202611CE0D5
:100B20001022026119E00822426016E010224260A1
:100B300013E00422426010E0042242600DE004222F
:100B400042600AE0002282610422426005E0002245
:100B500082610422426000E000BF00BF70470000D5
:100B60000101010010B504460B48844209D101215E
:100B7000480601F0EBF800214FF0007001F0E6F8B4
:100B800008E00121880601F0E1F800214FF08060C3
:100B900001F0DCF810BD00000064004010B5002139
:100BA000837A012202FA03F13D4A126842F00102FF
:100BB0003B4B1A603A4A1C3212688A43384B1C334A
:100BC0001A60027BCAB9364A0C3212688A43344B27
:100BD0000C331A604288C38842EA0343304A4032E9
:100BE000847A42F834300288838842EA03432C4AEC
:100BF0004032847A02EBC4025360027B012A19D18D
:100C0000274A0C3212680A43254B0C331A6042887B
:100C1000038842EA0343224A4032847A42F834305D
:100C2000C288838842EA03431D4A4032847A02EB39
:100C3000C4025360C27A3AB9194A121D12688A4333
:100C4000174B1B1D1A6006E0154A121D12680A4355
:100C5000134B1B1D1A60028932B9114A14321268F3
:100C60008A430F4B14331A600289012A06D10C4AB9
:100C7000143212680A430A4B14331A60427B012A69
:100C800006D1074A1C3212680A43054B1C331A600E
:100C9000034A126822F00102014B1A6010BD0000E5
:100CA0000066004070B504460D4600266069284085
:100CB000002871D0B5F5807F5CD010DC082D35D0D0
:100CC00006DC012D20D0022D24D0042D72D127E086
:100CD000102D31D0202D35D0402D6BD138E0B5F519
:100CE000004F60D009DCB5F5007F49D0B5F5806FC5
:100CF0004CD0B5F5006F5DD14FE0B5F5803F2DD0FC
:100D0000B5F5003F56D12FE0A0682D4900F03EFB1D
:100D1000064651E0E068032100F038FB06464BE050
:100D2000E068082100F032FB064645E0E06810214B
:100D300000F02CFB06463FE02069032100F026FB73
:100D4000064639E02069082100F020FB064633E022
:100D50002069102100F01AFB06462DE0606808218A
:100D600000F014FB064627E06068102100F00EFB3F
:100D7000064621E0A069012100F008FB06461BE0C1
:100D8000A069022100F002FB064615E0A0690421DB
:100D900000F0FCFA06460FE00FE0A069702100F0B9
:100DA000F5FA064608E06068042100F0EFFA06460E
:100DB00002E0FFE7002600BF00E00026304670BDDD
:100DC000010101000146886800F08060B0F1806F89
:100DD00001D101207047886800F00060B0F1006F19
:100DE00001D10120F6E7886800F08050B0F1805F03
:100DF00001D10120EEE70020ECE7000010B5164815
:100E0000007820B101280ED0022822D117E010234B
:100E1000124AFE21124800F06DF90F480078401C7C
:100E20000D49087016E010230E4AFE210C4800F010
:100E300061F909480078401C074908700AE010234E
:100E4000094AFE21064800F055F9002002490870C1
:100E500000E000BF00BF10BD200200205C010020A8
:100E6000006400406C0100207C0100201AB143693D
:100E70000B43436102E043698B434361704730B5E4
:100E8000024600200023146824F002041460146851
:100E900044F00104146000E05B1C546804F0010499
:100EA0001CB94FF6FF74A342F6D1546804F0010454
:100EB0000CB900206CE08C79012C04D1146844F04A
:100EC0008004146003E0146824F080041460CC797A
:100ED000012C04D1146844F04004146003E0146849
:100EE00024F0400414600C7A012C04D1146844F0FE
:100EF0002004146003E0146824F0200414604C7A89
:100F0000012C04D1146844F01004146003E0146848
:100F100024F0100414608C7A012C04D1146844F07D
:100F20000804146003E0146824F008041460CC7A08
:100F3000012C04D1146844F00404146003E0146824
:100F400024F0040414608C78A407CD7844EA056486
:100F50000D7944EA05444D7944EA05540D886D1E27
:100F60002C43D461146824F001041460002300E0D1
:100F70005B1C546804F001041CB14FF6FF74A342DB
:100F8000F6D1546804F001040CB1002000E0012007
:100F900030BD10B500F5D87303EB01131B6803F0E7
:100FA00004031372137A53B900F5D87303EB0113DA
:100FB0001B6840F2FF7404EA5353136009E000F524
:100FC000D87303EB01131B686FF0604404EAD3038A
:100FD000536000F5D87303EB01131B6803F00203A1
:100FE000537200F5D87303EB01135B6803F00F0332
:100FF000937200F5D87303EB01135B681B0AD3747B
:1010000000F5D87303EB01139B68D37200F5D87316
:1010100003EB01139B681C0A147300F5D87303EBF0
:1010200001139B681C0C547300F5D87303EB011378
:101030009B681B0E937300F5D87303EB0113DB68F9
:10104000D37300F5D87303EB0113DB681C0A147427
:1010500000F5D87303EB0113DB681C0C547400F526
:10106000D87303EB0113DB681B0E937421B9C368BB
:1010700043F02003C36003E0036943F020030361EE
:1010800010BD000000B585B0FE20009000208DF856
:1010900008008DF8090008208DF80A00002005E0FE
:1010A00011490A5C0DF10B010A54401C9DF80A100D
:1010B0008142F5DC69460D4800F0D5F80A2001F0C0
:1010C00047FC002005E00A490A5C0DF10B010A54B7
:1010D000401C9DF80A108142F5DC6946034800F087
:1010E000C2F805B000BD00004C01002000640040C3
:1010F000540100202DE9F04786B082460F46904605
:101100001D46019700208DF80C008DF80D00082079
:101110008DF80E0000242FE0281B00F0FF09B9F124
:10112000080F03DB08208DF80E0001E08DF80E900B
:10113000002006E0011918F801200DF10F010A54F2
:10114000401C9DF80E108142F4DC002605E0761C60
:1011500042F21070864200D904E05046FFF732FE9A
:101160000028F4D000BF01A9504600F07CF89DF89B
:101170000E002044C4B200BFAC42CDDB06B0BDE8D7
:10118000F087000010B51023034A4FF4A071034804
:10119000FFF7B0FF10BD00008E010020006400408A
:1011A00010B51023034A40F241110348FFF7A2FF94
:1011B00010BD00009E0100200064004010B5102307
:1011C000034A4FF4A1710348FFF794FF10BD0000DC
:1011D000AE0100200064004010B51023034A40F225
:1011E00043110348FFF786FF10BD0000BE01002039
:1011F0000064004010B51023034A4FF4A271034865
:10120000FFF778FF10BD0000BE0100200064004021
:1012100010B50446052C13D2DFE804F00306090CD0
:101220000F00FFF7AFFF0CE0FFF7BAFF09E0FFF791
:10123000C5FF06E0FFF7D0FF03E0FFF7DBFF00E0AC
:1012400000BF00BF10BD00218171C17101724172E8
:101250008172C1728170C1700321017102214171DB
:1012600001210180704710B502460020936803F009
:101270008063B3F1806F00D110E0936803F00063E6
:10128000B3F1006F01D1012008E0936803F08053AF
:10129000B3F1805F01D1022000E00420042874D063
:1012A00002F5C07303EB00131B6803F0010402F5A1
:1012B000C07303EB00131C600B7A7BB94B7A0C886C
:1012C00043EA445302F5C07404EB0014246823433A
:1012D00002F5C07404EB0014236010E00B7A4C6834
:1012E00043EAC4034C7A234302F5C07404EB0014B0
:1012F0002468234302F5C07404EB001423608B7A46
:1013000003F00F038B7202F5C07303EB00135B68ED
:1013100023F00F0402F5C07303EB00135C6002F5C9
:10132000C07303EB00135B688C7A234302F5C0742F
:1013300004EB001463608B7B1C064B7B44EA034484
:101340000B7B44EA0323CC7A234302F5C07404EBFD
:101350000014A3608B7C1C064B7C44EA03440B7C8A
:1013600044EA0323CC7B234302F5C07404EB00144E
:10137000E36002F5C07303EB00131B6843F0010444
:1013800002F5C07303EB00131C6010BD0246002081
:1013900002EA01030BB1012000E0002070470000C9
:1013A00010B5002410E0284901EB440000F0D0FA09
:1013B000254B1E3B33F814203C3319191E3B33F8E0
:1013C000140000F0CEFA641C0F2CECDB1F480078F0
:1013D000012820D11C481E3890F83C00012807D174
:1013E0001B49086000201B490880092000F036FDD9
:1013F00005240EE014481E30005D012808D1801E2F
:101400001349086020B213490880092000F026FD26
:10141000641C0E2CEEDB0C481E3890F83D000128B1
:1014200011D100F095F9012806D000F091F918B11A
:1014300000F08EF9022803D1032000F00FFD02E036
:10144000082000F00BFD10BD4202002070020020B9
:10145000740200207202002010B520480068401C71
:101460001E4908600621022000F022FAFFF798FFCB
:101470001A4800689621B0FBF1F201FB120008B98E
:1014800000F088F91548006841F2883188420AD98D
:10149000124800684FF4FA61B0FBF1F201FB120050
:1014A00008B9FFF7ABFC0D48006844F6206188429C
:1014B0000BD30A4800684FF4FA61B0FBF1F201FB6C
:1014C000120010B90120064908600448007800F0B5
:1014D000010008B9FFF744F810BD0000100100201A
:1014E0001401002010B50949094800F063F858B10B
:1014F0004FF08151064800F00FF80449044800F00D
:1015000025F8044800F03AFA10BD000000802010D1
:1015100040640240440200200246094B9A4201D234
:10152000084801E00648103801F000531BB1064B93
:101530000B40C36002E0044B0B4083607047000027
:1015400010640240006002407D0F7D0F0246094B8F
:101550009A4201D2084801E00648103801F00053D1
:101560001BB1064B0B40C36002E0044B0B40836091
:101570007047000010640240006002407D0F7D0F44
:1015800021B1026842F00102026003E0026822F029
:101590000102026070470146486880B27047014608
:1015A00000200A6802F400220AB1012000E00020B5
:1015B0007047000070B50246002000240025124E3E
:1015C000B24201D2114B01E00F4B103B104E0E40C6
:1015D00036B11E2606EAD124166806EA040502E0A2
:1015E000566906F0800501F000560EB15C6800E017
:1015F0001C68084E344004EA010616B10DB1012002
:1016000000E0002070BD0000106402400060024055
:101610003C0F3C0F7D0F7D0FF0EE400A9FED0A1A44
:10162000B0EE410A9FED091AF4EEC10AF1EE10FA8C
:1016300006DD9FED071A30EEC11AB0EE410A01E057
:10164000B0EE600A70470000000000000000344364
:101650000000B4437047F0B50A460021002300247F
:1016600000BF3DE0012505FA01F3156805EA030412
:101670009C4234D105684F000326BE40B543056047
:1016800015794E00B5400668354305601579012D82
:1016900002D01579022D16D185684F000326BE4071
:1016A000B543856055794E00B54086683543856001
:1016B000456801268E40B5434560456896798E4061
:1016C000B6B235434560C5684F000326BE40B543FA
:1016D000C560D5794E00B540C6683543C560491C24
:1016E0001029BFD3F0BDF0B5002300244D07ED0E47
:1016F00002FA05F3CE1000F1200555F826504E07EA
:10170000F70E0F26BE40B543CF1000F1200646F875
:101710002750CE1000F1200555F8265045EA030465
:10172000CE1000F1200545F82640F0BD024600200D
:1017300013690B400BB1012000E00020704741838A
:1017400070470183704742694A4042617047000018
:1017500001480078704700000C01002000BFFEE740
:101760001CB50121022000F0D1FA012000900020D8
:101770008DF8040001208DF8060002208DF8070086
:1017800003208DF8050069460148FFF764FF1CBD82
:101790000004024010B5424800780A2830DA404878
:1017A000007800282CDD3F4800684FF41661B0FB3C
:1017B000F1F201FB12003A4909784900C1EB01112D
:1017C00001EB8101B0EB410F27D8364800684FF498
:1017D0001661B0FBF1F201FB120020B90221324880
:1017E000FFF7AFFF19E02F4800689621B0FBF1F238
:1017F00001FB120088B902212B48FFF7A4FF0CE07F
:10180000274800780A2804DB02212748FFF797FFC2
:1018100003E002212448FFF794FF244800780A28B7
:1018200030DA2248007800282CDD1E4800684FF48A
:101830001661B0FBF1F201FB12001C490978490066
:10184000C1EB011101EB8101B0EB410F27D8154825
:1018500000684FF41661B0FBF1F201FB120020B9F1
:1018600001211148FFF76DFF19E00E48006896212D
:10187000B0FBF1F201FB120088B901210A48FFF721
:1018800062FF0CE0094800780A2804DB01210648C1
:10189000FFF755FF03E001210348FFF752FF10BD9A
:1018A0001F0100201001002000080240200100203C
:1018B0000A2801DD0A2200E00246054B1A700A29B7
:1018C00001DD0A2200E00A46024B1A707047000050
:1018D0001F010020200100201CB50121042000F080
:1018E00015FA0320009001208DF8040000208DF8E7
:1018F000060003208DF8050069460648FFF7ABFE99
:1019000002210448FFF71DFF01210248FFF719FFDC
:101910001CBD0000000802401CB50121042000F09D
:10192000F5F92020009001208DF8040000208DF8AA
:10193000060003208DF8050069460448FFF78BFE7A
:1019400020210248FFF7FBFE1CBD000000080240FA
:1019500001884FF6FE72914202DA0188491C01802B
:101960007047034602EB82004000984202DA0120F1
:10197000087001E00020087008787047002101809D
:10198000704700BFFEE7000001461E480068401C8B
:101990001C4A10601046007800F0010068BB1A4A2B
:1019A0001288083A10B2002802DA00F1090200E0B9
:1019B000024610B2154A32F810208A1A12B2144B9D
:1019C0001A80114A1288521C12B20F4B1A801A4602
:1019D000B2F90020082A04DD1A46B2F90020093ABB
:1019E00002E0094AB2F9002012B2074B1A80074AF6
:1019F000B3F9003022F8131000BF0548B0F9000019
:101A000070470000B4020020B00200200004002053
:101A1000B80200207047000070B5002100230F229B
:101A2000C4781CB3174C246804F4E064C4F5E06483
:101A3000C4F30721C1F10404E3B20A4144789C4095
:101A4000E1B28478144021430C07210E0E4C057836
:101A50006155047804F01F050124AC4005786D1130
:101A6000AD0005F1E025C5F8004109E0047804F077
:101A70001F050124AC40054D0678761145F8264037
:101A800070BD00000CED00E000E400E080E100E04B
:101A900002490143024A1160704700000000FA0544
:101AA0000CED00E0B0EE401A416900EE101AB8EEFD
:101AB000C00AB4EEC10AF1EE10FA06D2416900EE96
:101AC000101AB8EEC00AB0EE401A016900EE101A02
:101AD000B8EEC00AB4EEC10AF1EE10FA06DD0169F3
:101AE00000EE101AB8EEC00AB0EE401A816A4162E8
:101AF00031EE600A10EE101A816271EE601AC16850
:101B000000EE101AF4EEC01AF1EE10FA02DDC16810
:101B1000816213E071EE601AC16800EE101AB1EE36
:101B2000400AF4EEC01AF1EE10FA07D2C16800EED6
:101B3000101AB1EE400A10EE101A816231EE600AFE
:101B4000B5EEC00AF1EE10FA02DD31EE600A03E0F4
:101B500031EE600AB1EE400A816B01EE901AF8EEA8
:101B6000E11AB4EEE10AF1EE10FA04D89FED440A4E
:101B700010EE101A8162816A00EE101AC16A01EE3D
:101B8000901A9FED402A02EE210A10EE101AC1624F
:101B9000816A00EE101A416A01EE901A70EE611A25
:101BA000816800EE101A21EE800A10EE101A01630F
:101BB000C16A00EE101A016A01EE901AB4EEE10A51
:101BC000F1EE10FA01DD016AC162C16A00EE101A7D
:101BD000016A01EE901AF1EE611AB4EEE10AF1EE3B
:101BE00010FA07D2016A00EE101AB1EE400A10EEA8
:101BF000101AC162816A00EE101A016801EE901A93
:101C000020EE212AC16A00EE101A416801EE901AF6
:101C100000EE212A016B00EE101A32EE000A10EEDF
:101C2000101A4163416B00EE101AC16901EE901A5F
:101C3000F8EEE11AB4EEE10AF1EE10FA07DDC1693F
:101C400000EE101AB8EEC00A10EE101A4163416B94
:101C500000EE101A816901EE901AF8EEE11AB4EE66
:101C6000E10AF1EE10FA07D2816900EE101AB8EE1F
:101C7000C00A10EE101A4163416B00EE101A704753
:101C80000000000077BE7F3F704700001CB50121B7
:101C9000084600F03BF80121022000F037F801214E
:101CA000042000F033F8C320009001208DF80400D8
:101CB00000208DF8060003208DF8050069461048C5
:101CC000FFF7C9FC4FF44060009069460D48FFF7EC
:101CD000C2FC4FF44370009069460B48FFF7BBFC11
:101CE000C3210748FFF72BFD4FF440610548FFF77C
:101CF00026FD4FF443710448FFF721FD1CBD000091
:101D000000000240000402400008024029B1064AD7
:101D100012680243044B1A6004E0034A12688243CB
:101D2000014B1A60704700003038024029B1064A62
:101D300012680243044B1A6004E0034A12688243AB
:101D4000014B1A60704700004038024029B1064A32
:101D500012680243044B1A6004E0034A126882438B
:101D6000014B1A60704700002038024070470000A5
:101D70000CB50020019000903448006840F4803099
:101D80003249086000BF3148006800F4003000901C
:101D90000198401C0190009818B90198B0F5A04F27
:101DA000F1D12A48006800F4003010B10120009001
:101DB00001E0002000900098012846D123484030DF
:101DC000006840F080502149403108602048006898
:101DD00040F440401E4908601C48083000681B4918
:101DE000083108600846006840F400400860084672
:101DF000006840F4A05008601648091F0860081FDA
:101E0000006840F08070091F086000BF0F4800683C
:101E100000F000700028F9D040F205700E4908600B
:101E20000A480830006820F00300084908310860BB
:101E30000846006840F00200086000BF0348083010
:101E4000006800F00C000828F8D10CBD00380240F2
:101E50000070004008544007003C024001490870EF
:101E6000704700000C0100207047000010B51548B5
:101E7000006840F47000134908601348006840F09F
:101E800001001149086000200F49083108600E4820
:101E900000680E4908400C4908600D48091D08609B
:101EA000081F006820F48020091F086000200649F0
:101EB0000C310860FFF75CFF4FF00060014980398A
:101EC000086010BD88ED00E000380240FFFFF6FE1C
:101ED000103000241FB501211020FFF727FF362006
:101EE0008DF8000001208DF801008DF802008DF8BA
:101EF00003006846FFF790FD5320ADF80400002072
:101F0000ADF80600ADF80C004FF47A70029001A90C
:101F1000014800F055F81FBD0010004010B5012128
:101F2000074800F033F848B10121054800F01FF8D8
:101F30000121034800F018F8FFF78EFA10BD0000E9
:101F40000010004010B50121064800F013F80122EE
:101F50001146044800F02BF80121024800F004F873
:101F600010BD000000100040CA4302827047CA43FF
:101F70000282704721B1028842F00102028004E02F
:101F800002884FF6FE731A400280704730B5024651
:101F9000002000230024158A05EA0103958905EA3B
:101FA000010413B10CB1012000E0002030BD1AB1D2
:101FB00083890B43838102E083898B43838170474C
:101FC00000220288184B98420ED0184B98420BD032
:101FD000B0F1804F08D0164B984205D0154B98426F
:101FE00002D0154B984204D14FF68F731A404B889C
:101FF0001A43124B984207D0114B984204D04FF627
:10200000FF431A400B891A4302804B68C3620B8856
:102010000385054B984202D0044B984201D18B7A3C
:1020200003860123838270470000014000040140C1
:102030000004004000080040000C00400010004078
:102040000014004010B540F22551094800F0A5F8F1
:1020500068B140F22551064800F090F8044800F0BD
:10206000C6F8044908700846007800F0C7F810BDAB
:10207000004C00400800002010B540F225510748F0
:1020800000F08BF840B1054800F0B1F80449087041
:10209000024800880148808810BD000000500040C0
:1020A0005000002010B540F22441254800F075F89A
:1020B000002843D0224800882148001D008821487C
:1020C000FFF76DFAE8B900201F49087000211D488C
:1020D000FFF756FA1B48FFF75EFAC0F164001B4990
:1020E0000860642017492839C8620846806A40F4AD
:1020F0000020886201211348FFF742FA00F036FC05
:102100001CE001201049087000210E48FFF738FA42
:102110000C48FFF740FAC0F164000C4908606420E5
:1021200008492839C8620846806A20F4002088627D
:1021300001210448FFF724FA00F018FC10BD00004C
:10214000004800402860024056000020B0000020F7
:1021500010B540F22551074800F01FF848B1054876
:1021600000F045F804490870024800880148001D45
:10217000008810BD00140140B500002010B50022F9
:10218000002340F66A14A14200D100BF0A120124C4
:102190009440A3B2DC43048010BD70B50246002415
:1021A00000230025002040F66A16B14200D100BF8E
:1021B000C1F3421501F01F03012606FA03F3012DB6
:1021C00002D19689334006E0022D02D1168A3340AF
:1021D00001E0968A33400C12012606FA04F41688B0
:1021E000344013B10CB1012000E0002070BD014665
:1021F0008888C0F30800704700BFFEE710B50446AA
:10220000FD48006807287DD2DFE800F0107C3BF233
:10221000F0EF04000020F9490880552C02D1F6495E
:10222000086002E00620F449086056E3512C06D00D
:10223000522C0BD0532C10D0542C1CD114E0022063
:10224000ED4908600020ED49088018E00320EA49C4
:1022500008600020E949088011E00420E649086090
:102260000020E64908800AE00520E34908600020D4
:10227000E249088003E00620DF49086000BF00BF94
:102280002BE3DE480088DD490988491CDB4A1180C0
:1022900009287CD2DFE800F005080B0E1114171A8C
:1022A0001D00D74804809EE0D64804809BE0D648B5
:1022B000048098E0D548048095E0D548048092E0F9
:1022C000D44804808FE0D44804808CE0D348048054
:1022D00089E0D3480480CA480088A630C9490988E3
:1022E0000844C94909880844C84909880844C849B4
:1022F00009880844C74909880844C7490988084427
:10230000C64900E0E5E209880844C6490880C44897
:1023100000880002098800EA0120C8B3BE4800888E
:10232000BE49098840EA012000EE100AB8EEC00A52
:10233000DFEDBD0A80EE201ABC4880ED031AB048DC
:102340000188B048007841EA002000B200EE100A8F
:10235000B8EEC00ADFEDB60A80EE201AB3EE000A2E
:1023600021EE000AB14880ED040AA7480188A74879
:10237000007841EA002000B200EE100AF8EEC00A30
:102380009FEDAB1A80EE810AF3EE000A01E023E034
:102390001EE020EE200AA54880ED050A9C48018831
:1023A0009C48007841EA002000B200EE100AB8EE26
:1023B000C00ADFED9F0A80EE201AB3EE000A21EE7C
:1023C000000A9A4880ED060A06208B49086002E060
:1023D00006208949086006E0062087490860002039
:1023E0008649088000BF00BF77E2BFE1B3E0FFE7A6
:1023F0008248008881490988491C804A118009283F
:102400007ED2DFE800F005080B0E1114171A1D002C
:10241000884804809DE0884804809AE087480480CA
:1024200097E08748048094E08648048091E08648DD
:1024300004808EE0784804808BE07848048088E04F
:10244000774804807B480088A7307B490988084486
:102450007A49098808447A490988084479490988E9
:1024600008447949098808446B49098808446B493C
:10247000098808446B490880694800880002098877
:1024800000EA0120E8B3644800886449098809B279
:1024900040EA012000EE100AB8EEC00ADFED620A41
:1024A00080EE201A614880ED031A62480088624974
:1024B000097840EA012000B200EE100AB8EEC00A26
:1024C000DFED5B0A80EE201A9FED600A21EE000A24
:1024D000564880ED070A594800885949097840EA6A
:1024E000012000B200EE100AF8EEC00A9FED501A6B
:1024F00080EE810ADFED550A20EE200A4B4801E00C
:1025000020E01BE080ED080A4E4800884E4909781B
:1025100040EA012000B200EE100AB8EEC00ADFED7A
:10252000440A80EE201A9FED490A21EE400A3F48F6
:1025300080ED090A06203049086002E006202E4995
:10254000086006E006202C49086000202B4908801E
:1025500000BF00BFC1E12948008828490988491CFB
:10256000264A118009287FD2DFE800F005080B0E0B
:102570001114171A1D0036480480F5E03548048010
:10258000F2E035480480EFE034480480ECE0344861
:102590000480E9E033480480E6E01F480480E3E07B
:1025A0001E480480E0E01E48048029480088A830C6
:1025B000284909880844284909880844274909887E
:1025C00008442749098808442649098808441249CB
:1025D00009880844114909880844124908801048AC
:1025E00000880002098800EA0120F0B30A48008848
:1025F0000A49098809B239E00C00002010000020C7
:102600001200002018000020140000201A000020F2
:10261000160000201C0000202A0000202C000020B2
:1026200046000020480000200000C842BC020020F4
:10263000000000471E000020200000202200002093
:102640002400002026000020280000200000FA447A
:102650002E00002030000020320000203400002036
:10266000360000203800002077E072E040EA0120C8
:1026700000EE100AB8EEC00A5FED150A80EE201ACF
:10268000974880ED031A974800889749098809B24E
:1026900040EA012000EE100AF8EEC00A1FED1C1AF5
:1026A00080EE810ADFED910A20EE200A8C4880ED51
:1026B0000B0A8F4800888F49098809B240EA012037
:1026C00000EE100AF8EEC00A1FED271A80EE810A0C
:1026D000DFED860A20EE200A814880ED0A0A86484E
:1026E00000888649098809B240EA012000EE100AF4
:1026F000F8EEC00A1FED321A80EE810ADFED7B0A88
:1027000020EE200A764880ED0C0AD0ED0A0AB0EEE1
:10271000600AFEF781FF724880ED0A0AD0ED0B0ACD
:10272000B0EE600AFEF778FF6D4880ED0B0AD0ED41
:102730000C0AB0EE600AFEF76FFFB1EE400A68487F
:1027400080ED0C0A6E48FFF719F906206D49086004
:1027500002E006206B49086006E00620694908602F
:1027600000206949088000BF00BFB6E066480088C5
:1027700065490988491C644A118009287DD2DFE82F
:1027800000F005080B0E1114171A1D005F48048095
:102790009DE05F4804809AE05E48048097E05E48D0
:1027A000048094E05D48048091E05D4804808EE000
:1027B0005C4804808BE05C48048088E05B480480CF
:1027C00052480088A930524909880844514909886B
:1027D0000844514909880844504909880844504927
:1027E000098808444F49098808444F490988084422
:1027F0004F4908804D4800880002098800EA0120FE
:10280000E0B3424801884248007841EA002000B223
:1028100000EE100AB8EEC00A1FED7B1AC0EE010AE6
:102820001FED760A20EE800A2D4880ED000A394817
:1028300001883948007841EA002000B200EE100A11
:10284000B8EEC00A1FED861AC0EE010A1FED810A1C
:1028500020EE800A224880ED010A30480188304885
:10286000007841EA002000B200EE100AB8EEC00A7B
:102870005FED910A80EE201A01E021E01CE01FEDDF
:102880008D0A21EE000A164880ED020A25480088CC
:102890002549098809B240EA012000EE100AB8EE85
:1028A000C00A5FED9F0A80EE201A0D4880ED031AE2
:1028B00006201449086002E006201249086006E07C
:1028C00006201049086000200F49088000BF00BFA3
:1028D00003E006200B49086000BF00BF10BD0000E8
:1028E000BC020020320000203400002000003443ED
:1028F0002E0000203000002036000020380000208C
:10290000420200200C000020100000203A000020AD
:102910003C0000203E00002040000020420000203B
:10292000440000202A0000202C0000204600002047
:102930004800002010B5002107E04AF2104200BF15
:102940001300A2F10102FBD1491C8142F5D310BD55
:1029500010B5002106E0282200BF1300A2F10102F9
:10296000FBD1491C8142F6D310BD000010B50524EF
:102970007A48FFF703F87A48007800EBC00101EBD2
:102980000010784901EB800001197748098801801F
:10299000A01C764908807448008804280FD170482C
:1029A000007800EBC00202EB00106E4A02EB8000E0
:1029B0000A461288811814226D48FDF775FC6A4892
:1029C0000088032810D16648007800EBC00101EBB5
:1029D0000010644901EB8000644909880844654996
:1029E00002680A60808888805F48008807283ED196
:1029F0005B48007800EBC00101EB0010594901EB86
:102A000080005A490988405CC0F300105A49C870D8
:102A10005348007800EBC00101EB0010514901EB75
:102A2000800052490988405CC0F340105249487008
:102A30004B48007800EBC00101EB0010494901EB65
:102A400080004A490988405CC0F380104A49887078
:102A50004348007800EBC00101EB0010414901EB55
:102A6000800042490988405CC009434908703E48DB
:102A70000088022824D13A48007800EBC00101EB1D
:102A80000010384901EB800038490988405C3B4917
:102A9000097860F30301394801703148007800EB90
:102AA000C00101EB00102F4901EB80002F4909887C
:102AB000405C01093148007861F307102F49087024
:102AC0002748007800EBC00101EB0010254901EB1D
:102AD000800001192448B1F81D10018004F11F0085
:102AE000224908802048008808280FD11C48007817
:102AF00000EBC00202EB00101A4A02EB80000A460B
:102B00001288811810221E48FDF7CEFB1448007869
:102B100000EBC00101EB0010124901EB800001192C
:102B20001148C98E018004F13800104908800E4810
:102B30000088012810D10A48007800EBC00101EBA1
:102B40000010084901EB80000849098808440D4934
:102B500002680A604068486010BD0000480200201A
:102B600056000020F0020020580000205C000020E9
:102B7000CE03002078000020810000207700002094
:102B8000E20300206F0000200120FFF767F94FF4F7
:102B9000FA70FFF7CFFEFDF7C5FC4FF4FA70FFF7B0
:102BA000C9FEFEF76FFA0FE0FDF730FC074800683A
:102BB00007490968401AB0F5C87F05D3FEF71EF92A
:102BC0000248006802490860EEE70000100100209A
:102BD000000000204FF04070E1EE100A7047000046
:102BE000002C000800000020BC020000C401000806
:102BF000D82C0008BC020020BC07000020020008FE
:102C0000C10255060322D8410310A50D0320FFFF82
:102C100067DC42295C0F3E3008F0419CFFFFFF64F7
:102C20001B9CE608221905416EAB964693010113E1
:102C300051040A1E0808225A1A33341BFFFF371D9D
:102C40001512FCEA107A0C101CB82F6F107A56106F
:102C50001C7EDD67107AAC101572E8760119121A25
:102C60000512120212011E0715CF1D491029861ADE
:102C700002896E0715DF7356102A02106C9174F1E9
:102C8000102A03106C5CB6E8102A0410160D6BB7FE
:102C90005A0412041C010B02623B0610CD1B2C537C
:102CA000141B86012439142AF9152A8D146B8A0104
:102CB000282A4714A32D1D12061A11471A0A0229A1
:102CC0004FE902012E398531F3C50D0411503E45FF
:082CD0006B505C146A0138C16D
:040000050800018965
:00000001FF
