:020000040800F2
:10000000E8D701209D010008051A00084D170008D7
:100010007319000875040008C52F000800000000CF
:10002000000000000000000000000000652800083B
:100030004516000800000000312600089529000838
:10004000B7010008B7010008B7010008B7010008B0
:10005000B7010008B7010008B7010008B7010008A0
:10006000B7010008B7010008B7010008B701000890
:10007000B7010008B7010008B7010008B701000880
:10008000B7010008B7010008B7010008B701000870
:1000900095060008B7010008B7010008B70100087D
:1000A000B7010008B7010008B7010008B701000850
:1000B000B7010008B7010008B7010008B701000840
:1000C000B7010008B7010008B7010008B701000830
:1000D000B7010008B7010008B7010008712E000839
:1000E000B7010008B7010008B7010008B701000810
:1000F000B7010008B7010008B7010008B701000800
:10010000B7010008B7010008B7010008B7010008EF
:100110003D2E0008B7010008492A0008B701000871
:10012000B7010008B7010008DD120008B701000898
:10013000B7010008B7010008B7010008B7010008BF
:1001400075080008B7010008B7010008B7010008EA
:10015000B7010008B7010008B70100081D2F00080B
:10016000B7010008B7010008B7010008B70100088F
:10017000B7010008B7010008B7010008B70100087F
:10018000B7010008B7010008DFF80CD000F02AF82A
:100190000048004775390008E8D701200648804725
:1001A00006480047FEE7FEE7FEE7FEE7FEE7FEE75C
:1001B000FEE7FEE7FEE7FEE799290008890100084F
:1001C00040EA01039B0703D009E008C9121F08C0D9
:1001D000042AFAD203E011F8013B00F8013B521E59
:1001E000F9D27047064C074D06E0E06840F0010385
:1001F00094E8070098471034AC42F6D3FFF7C8FFE5
:10020000C4390008E439000870B58C1810F8015B97
:1002100015F0070301D110F8013B2A1106D110F89F
:10022000012B03E010F8016B01F8016B5B1EF9D1A3
:100230002B0705D40023521E0DD401F8013BFAE729
:1002400010F8013BCB1A921C03E013F8015B01F894
:10025000015B521EF9D5A142D8D3002070BD000029
:1002600010B5002418E00E4810F8340020B1012821
:1002700003D002280DD10BE00BE0204600F0B6FEC3
:10028000142003F04DFA0220054901F8340000E083
:1002900000BF00BF601CC4B2052CE4DB10BD000031
:1002A000D84200207047000070B505460C4616463F
:1002B000082E22D120785A2807D1607828B9A07852
:1002C00018B901200D4901F8350020785A2814D1B9
:1002D0006078092811D1A07878B9084800EBC500EA
:1002E0004088401C054901EBC5014880034800EBEC
:1002F000C500012142682846904770BDD8420020C1
:1003000010B54FF4A06001F0BBFB01F0DDFA01F085
:10031000FBFA01F01DFA02F023FB4FF47A7003F0B0
:10032000FFF902F06DFB00F039F900F027FA4FF405
:10033000C86003F0F5F902F09DFB10BD10B542480E
:1003400090ED000ADFED410A20EE200A4048D0ED92
:10035000060AF8EEE00A9FED3F1A00EE810A3A48DD
:1003600080ED000A01213C4801F0D8F93B490870B2
:1003700008460078012819D139480078B0B93948C1
:10038000007818B90120374908700FE03548007827
:10039000012804D0334890F90000401C18B900200F
:1003A0003049087002E000202E4908702B48007880
:1003B0002B4908702B480078012804D0294890F96F
:1003C0000000401CA0B928480068401C264908606D
:1003D000084600684EF6602188420CD32148007818
:1003E000404240B21F49087000201F49086002E0E7
:1003F00000201D4908601D4890F84500012800D1E3
:1004000010BD184890F90000C0EB001040001049E2
:10041000C8610846D0ED070AF8EEE00AB0EE600ABF
:1004200013480949D1ED000A01F074FCBDEEC00A81
:10043000074880ED090A0146898C08B2002100F0C6
:1004400043F900BFDCE70000B44200203333333F00
:10045000304400209A99993E00040240B84200209E
:10046000C0420020B9420020BC420020D8430020F6
:100470007042002000BFFEE710B504462068A0F2DD
:10048000012006283AD2DFE800F003070C111627F6
:100490001C4801F06BFA32E01A48801C01F066FA41
:1004A0002DE01848801D01F061FA28E01548001D74
:1004B00001F05CFA23E0207BE17A40EA0120124956
:1004C0004861898A08B201F057FA0F4988610D48DE
:1004D000001F01F04BFA12E0207BE17A40EA012094
:1004E00009490860A17B607B41EA002000B206490F
:1004F00048600448801E01F039FA00E000BF00BFE8
:1005000010BD00000C4400203044002010B504460B
:1005100040F242222068811A904223D009DCB0F5D3
:10052000A87F0BD0B0F5107F0ED0A0F2412070BB99
:1005300011E001291DD002292AD121E016480068C6
:10054000401C1549086024E0A27A04F10B01002048
:10055000FFF7AAFE1DE0A27A04F10B010120FFF7CC
:10056000A3FE16E0A27A04F10B010220FFF79CFE25
:100570000FE0A27A04F10B010320FFF795FE08E0DB
:10058000A27A04F10B010420FFF78EFE01E0FFE7E1
:1005900000BF00BF10BD0000D043002000B58BB0ED
:1005A0000121084602F046F80121480602F052F8FF
:1005B00009220B21354801F08EF809220C2133481D
:1005C00001F089F84FF4C050029002208DF80C0021
:1005D00002A92E4801F037F814208DF804000120FC
:1005E0008DF8050000208DF8060001208DF8070029
:1005F00001A801F009FA264800F0A2F908A800F0C5
:1006000010FD00208DF826008DF827008DF82800B9
:100610008DF829008DF82A0001208DF82B0000208C
:100620008DF822008DF8230008208DF82400032087
:100630008DF82500ADF8200008A9154800F00DFB45
:1006400001208DF81A0000208DF81B0001208DF884
:100650001C000020ADF81000ADF81200ADF8140039
:10066000ADF81600ADF8180001208DF81D0004A8A3
:1006700000F082F901220221054800F0E5FA01228A
:100680001146034800F0E0FA0BB000BD0000024044
:100690000064004000B585B002210A4800F0F0F97E
:1006A00070B10221074800F0F7F86A4600210548BA
:1006B00000F05DFB6846FFF7DFFE6846FFF726FFA8
:1006C00005B000BD0064004030B585B004460D465D
:1006D00040F2FF10009000208DF808008DF809000E
:1006E00008208DF80A00200A8DF80B00E1B28DF881
:1006F0000C10290A8DF80D10E9B28DF80E100021AA
:100700008DF80F108DF810108DF811108DF8121053
:100710006946024800F095FC05B030BD0064004019
:1007200010B5044622460021124800F020FB206844
:10073000A0F20120062819D2DFE800F003070C110F
:1007400016170D4801F012F911E00B48801C01F05A
:100750000DF90CE00848001D01F008F907E0064813
:10076000801D01F003F902E001E000E000BF00BFDE
:1007700010BD0000006800400044002000B58BB0B0
:100780000121022001F056FF0121880601F062FFDD
:1007900009220C21354800F09EFF09220D21334823
:1007A00000F099FF4FF44050029002208DF80C00A9
:1007B00002A92E4800F047FF40208DF804000120D8
:1007C0008DF8050000208DF8060001208DF8070047
:1007D00001A801F019F9264800F0B2F808A800F0C5
:1007E00020FC00208DF826008DF827008DF82800C9
:1007F0008DF829008DF82A0001208DF82B000020AB
:100800008DF822008DF8230008208DF824000320A5
:100810008DF82500ADF8200008A9154800F01DFA54
:100820000E208DF81A0000208DF81B0001208DF895
:100830001C000020ADF81000ADF81200ADF8140057
:10084000ADF81600ADF8180001208DF81D0004A8C1
:1008500000F092F801220221054800F0F5F901228A
:100860001146034800F0F0F90BB000BD000402404F
:100870000068004000B585B00221064800F000F98C
:1008800030B10221034800F007F86846FFF748FF3F
:1008900005B000BD00680040B1F5007F3AD00FDC24
:1008A000202928D006DC01291CD004291DD00829C4
:1008B00040D11DE0402921D0B1F5807F3AD126E01A
:1008C000B1F5004F31D006DCB1F5806F25D0B1F520
:1008D000006F2FD124E0B1F5803F12D0B1F5003F79
:1008E00028D111E0154A826025E00822C26022E08A
:1008F0001022C2601FE0082202611CE01022026187
:1009000019E00822426016E01022426013E004223F
:10091000426010E0042242600DE0042242600AE0DE
:10092000002282610422426005E0002282610422EA
:10093000426000E000BF00BF7047000001010100FD
:1009400010B504460B48844209D10121480601F044
:1009500091FE00214FF0007001F08CFE08E00121B3
:10096000880601F087FE00214FF0806001F082FED2
:1009700010BD00000064004010B50021837A012200
:1009800002FA03F13D4A126842F001023B4B1A6041
:100990003A4A1C3212688A43384B1C331A60027B75
:1009A000CAB9364A0C3212688A43344B0C331A6087
:1009B0004288C38842EA0343304A4032847A42F88C
:1009C00034300288838842EA03432C4A4032847AD6
:1009D00002EBC4025360027B012A19D1274A0C3270
:1009E00012680A43254B0C331A604288038842EA96
:1009F0000343224A4032847A42F83430C2888388E2
:100A000042EA03431D4A4032847A02EBC402536037
:100A1000C27A3AB9194A121D12688A43174B1B1D34
:100A20001A6006E0154A121D12680A43134B1B1D7B
:100A30001A60028932B9114A143212688A430F4B84
:100A400014331A600289012A06D10C4A1432126842
:100A50000A430A4B14331A60427B012A06D1074A23
:100A60001C3212680A43054B1C331A60034A126891
:100A700022F00102014B1A6010BD00000066004028
:100A800070B504460D46002660692840002871D0E4
:100A9000B5F5807F5CD010DC082D35D006DC012D4B
:100AA00020D0022D24D0042D72D127E0102D31D07A
:100AB000202D35D0402D6BD138E0B5F5004F60D0FA
:100AC00009DCB5F5007F49D0B5F5806F4CD0B5F5A0
:100AD000006F5DD14FE0B5F5803F2DD0B5F5003FFB
:100AE00056D12FE0A0682D4900F03EFB064651E0AC
:100AF000E068032100F038FB06464BE0E06808217F
:100B000000F032FB064645E0E068102100F02CFBC7
:100B100006463FE02069032100F026FB064639E047
:100B20002069082100F020FB064633E020691021EF
:100B300000F01AFB06462DE06068082100F014FB67
:100B4000064627E06068102100F00EFB064621E013
:100B5000A069012100F008FB06461BE0A069022104
:100B600000F002FB064615E0A069042100F0FCFA43
:100B700006460FE00FE0A069702100F0F5FA064686
:100B800008E06068042100F0EFFA064602E0FFE7A3
:100B9000002600BF00E00026304670BD01010100C4
:100BA0000146886800F08060B0F1806F01D10120BB
:100BB0007047886800F00060B0F1006F01D101203B
:100BC000F6E7886800F08050B0F1805F01D1012025
:100BD000EEE70020ECE7000010B51648007820B1E1
:100BE00001280ED0022822D117E01023124AFE213C
:100BF000124800F06DF90F480078401C0D4908704C
:100C000016E010230E4AFE210C4800F061F9094855
:100C10000078401C074908700AE01023094AFE21A9
:100C2000064800F055F900200249087000E000BFB6
:100C300000BF10BDD44300201043002000640040DA
:100C400020430020304300201AB143690B43436125
:100C500002E043698B434361704730B50246002090
:100C60000023146824F002041460146844F00104A2
:100C7000146000E05B1C546804F001041CB94FF6DA
:100C8000FF74A342F6D1546804F001040CB90020AB
:100C90006CE08C79012C04D1146844F08004146059
:100CA00003E0146824F080041460CC79012C04D192
:100CB000146844F04004146003E0146824F0400415
:100CC00014600C7A012C04D1146844F020041460E0
:100CD00003E0146824F0200414604C7A012C04D141
:100CE000146844F01004146003E0146824F0100445
:100CF00014608C7A012C04D1146844F00804146048
:100D000003E0146824F008041460CC7A012C04D1A8
:100D1000146844F00404146003E0146824F004042C
:100D200014608C78A407CD7844EA05640D7944EA10
:100D300005444D7944EA05540D886D1E2C43D46159
:100D4000146824F001041460002300E05B1C546864
:100D500004F001041CB14FF6FF74A342F6D15468AD
:100D600004F001040CB1002000E0012030BD10B5FA
:100D700000F5D87303EB01131B6803F0040313722F
:100D8000137A53B900F5D87303EB01131B6840F2D3
:100D9000FF7404EA5353136009E000F5D87303EBC2
:100DA00001131B686FF0604404EAD303536000F53D
:100DB000D87303EB01131B6803F00203537200F5B1
:100DC000D87303EB01135B6803F00F03937200F514
:100DD000D87303EB01135B681B0AD37400F5D87357
:100DE00003EB01139B68D37200F5D87303EB011377
:100DF0009B681C0A147300F5D87303EB01139B68FE
:100E00001C0C547300F5D87303EB01139B681B0E85
:100E1000937300F5D87303EB0113DB68D37300F50C
:100E2000D87303EB0113DB681C0A147400F5D87344
:100E300003EB0113DB681C0C547400F5D87303EB4F
:100E40000113DB681B0E937421B9C36843F02003C0
:100E5000C36003E0036943F02003036110BD000099
:100E600000B585B0FE20009000208DF808008DF8B8
:100E7000090008208DF80A00002005E011490A5CED
:100E80000DF10B010A54401C9DF80A108142F5DC5B
:100E900069460D4800F0D5F80A2002F04FFC00200A
:100EA00005E00A490A5C0DF10B010A54401C9DF84B
:100EB0000A108142F5DC6946034800F0C2F805B02B
:100EC00000BD0000004300200064004008430020F3
:100ED0002DE9F04786B082460F4690461D460197A1
:100EE00000208DF80C008DF80D0008208DF80E0004
:100EF00000242FE0281B00F0FF09B9F1080F03DBE5
:100F000008208DF80E0001E08DF80E90002006E01C
:100F1000011918F801200DF10F010A54401C9DF829
:100F20000E108142F4DC002605E0761C42F21070BF
:100F3000864200D904E05046FFF732FE0028F4D084
:100F400000BF01A9504600F07CF89DF80E00204437
:100F5000C4B200BFAC42CDDB06B0BDE8F0870000F4
:100F600010B51023034A4FF4A0710348FFF7B0FFF8
:100F700010BD0000424300200064004010B5102363
:100F8000034A40F241110348FFF7A2FF10BD0000E1
:100F9000524300200064004010B51023034A4FF470
:100FA000A1710348FFF794FF10BD000062430020C9
:100FB0000064004010B51023034A40F24311034877
:100FC000FFF786FF10BD0000724300200064004060
:100FD00010B51023034A4FF4A2710348FFF778FFBE
:100FE00010BD0000724300200064004010B50446AC
:100FF000052C13D2DFE804F00306090C0F00FFF7FD
:10100000AFFF0CE0FFF7BAFF09E0FFF7C5FF06E00E
:10101000FFF7D0FF03E0FFF7DBFF00E000BF00BFFA
:1010200010BD00218171C171017241728172C17262
:101030008170C17003210171022141710121018080
:10104000704710B502460020936803F08063B3F147
:10105000806F00D110E0936803F00063B3F1006F7C
:1010600001D1012008E0936803F08053B3F1805F61
:1010700001D1022000E00420042874D002F5C073DE
:1010800003EB00131B6803F0010402F5C07303EBCC
:1010900000131C600B7A7BB94B7A0C8843EA4453EB
:1010A00002F5C07404EB00142468234302F5C074F5
:1010B00004EB0014236010E00B7A4C6843EAC4038D
:1010C0004C7A234302F5C07404EB001424682343D4
:1010D00002F5C07404EB001423608B7A03F00F0355
:1010E0008B7202F5C07303EB00135B6823F00F04EF
:1010F00002F5C07303EB00135C6002F5C07303EBF1
:1011000000135B688C7A234302F5C07404EB00146F
:1011100063608B7B1C064B7B44EA03440B7B44EAF5
:101120000323CC7A234302F5C07404EB0014A360BC
:101130008B7C1C064B7C44EA03440B7C44EA03236F
:10114000CC7B234302F5C07404EB0014E36002F58A
:10115000C07303EB00131B6843F0010402F5C07376
:1011600003EB00131C6010BD0246002002EA0103DD
:101170000BB1012000E000207047000010B50024F2
:1011800010E0284901EB440000F0DAFB254B1E3B40
:1011900033F814203C3319191E3B33F8140000F0C7
:1011A000D8FB641C0F2CECDB1F480078012820D1F1
:1011B0001C481E3890F83C00012807D11B490860E4
:1011C00000201B490880092001F0C4FB05240EE023
:1011D00014481E30005D012808D1801E13490860A4
:1011E00020B213490880092001F0B4FB641C0E2CC6
:1011F000EEDB0C481E3890F83D00012811D100F0BC
:101200009FFA012806D000F09BFA18B100F098FA76
:10121000022803D1032001F09DFB02E0082001F029
:1012200099FB10BDF64300202444002028440020F0
:101230002644002010B527480068401C2549086056
:101240000621022000F02CFB224800680521B0FB9B
:10125000F1F201FB120030B91E480068B0F57A7F48
:1012600001D901F085FAFFF789FF1A480068962135
:10127000B0FBF1F201FB120008B900F083FA154847
:10128000006841F2883188420AD9124800684FF458
:10129000FA61B0FBF1F201FB120008B9FFF79CFC08
:1012A0000C48006844F6206188420BD30948006866
:1012B0004FF4FA61B0FBF1F201FB120010B901200A
:1012C000054908600348007800F0010008B9FFF7FD
:1012D00035F810BDC8420020CC42002010B50949A5
:1012E000094800F031F958B14FF08151064800F03B
:1012F0000FF80449044800F025F8044800F036FBD4
:1013000010BD00000080201040640240F84300201F
:101310000246094B9A4201D2084801E006481038BB
:1013200001F000531BB1064B0B40C36002E0044BBD
:101330000B40836070470000106402400060024070
:101340007D0F7D0F0246094B9A4201D2084801E009
:101350000648103801F000531BB1064B0B40C36028
:1013600002E0044B0B4083607047000010640240B1
:10137000006002407D0F7D0F21B1026842F0010242
:10138000026003E0026822F0010202607047000080
:10139000016821F00101016000210160416081606C
:1013A000C1600161212141614A49884204D13D2146
:1013B000484A103A91608CE046491831884205D17C
:1013C0004FF47461434A103A916082E041493031F0
:1013D000884205D14FF474113E4A103A916078E08A
:1013E0003C494831884205D14FF07461394A103A7E
:1013F00091606EE037496031884204D13649354A00
:10140000103AD16065E033497831884204D13349DC
:10141000304A103AD1605CE02E499031884204D1C4
:101420002F492C4A103AD16053E02A49A83188420A
:1014300005D14FF03D51274A103AD16049E0294982
:10144000884204D13D21274A083A116041E02549EC
:101450001831884205D14FF47461224A083A11606C
:1014600037E020493031884205D14FF474111D4ACC
:10147000083A11602DE01B494831884205D14FF0F0
:101480007461184A083A116023E0164960318842B5
:1014900004D11149134A121F11601AE01149783121
:1014A000884204D10D490F4A121F116011E00D4905
:1014B0009031884204D10A490A4A121F116008E09B
:1014C0000849A831884204D14FF03D51054A121F06
:1014D00011607047106002403D000020400F002066
:1014E00000003D20106402400146486880B2704709
:1014F000014600200A6802F400220AB1012000E03F
:101500000020704730B503460A46002000240B4DEA
:10151000AB4201D20A4901E00849103902F00055F6
:101520000DB14C6800E00C68064D2C4004EA020541
:101530000DB1012000E0002030BD00001064024029
:10154000006002407D0F7D0F70B502460020002430
:101550000025124EB24201D2114B01E00F4B103B5D
:10156000104E0E4036B11E2606EAD124166806EA51
:10157000040502E0566906F0800501F000560EB140
:101580005C6800E01C68084E344004EA010616B1AD
:101590000DB1012000E0002070BD00001064024089
:1015A000006002403C0F3C0F7D0F7D0F10B5002204
:1015B0000268134B1A40CC680B6823434C692343E1
:1015C0008C692343CC6923430C6A23434C6A23432D
:1015D0008C6A23434C6B23438C6B23431A43026076
:1015E000426922F00702D1E90B3423431A434261D6
:1015F0000B6943604B6883608B68C36010BD00005B
:101600003F801CF041607047F0EE400A9FED0A1ADF
:10161000B0EE410A9FED091AF4EEC10AF1EE10FA9C
:1016200006DD9FED071A30EEC11AB0EE410A01E067
:10163000B0EE600A70470000000000000000344374
:101640000000B4437047F0B50A460021002300248F
:1016500000BF3DE0012505FA01F3156805EA030422
:101660009C4234D105684F000326BE40B543056057
:1016700015794E00B5400668354305601579012D92
:1016800002D01579022D16D185684F000326BE4081
:10169000B543856055794E00B54086683543856011
:1016A000456801268E40B5434560456896798E4071
:1016B000B6B235434560C5684F000326BE40B5430A
:1016C000C560D5794E00B540C6683543C560491C34
:1016D0001029BFD3F0BDF0B5002300244D07ED0E57
:1016E00002FA05F3CE1000F1200555F826504E07FA
:1016F000F70E0F26BE40B543CF1000F1200646F886
:101700002750CE1000F1200555F8265045EA030475
:10171000CE1000F1200545F82640F0BD024600201D
:1017200013690B400BB1012000E00020704741839A
:1017300070470183704742694A4042617047000028
:101740000148007870470000C442002000BFFEE757
:101750001CB50121022000F06DFF01200090002047
:101760008DF8040001208DF8060002208DF8070096
:1017700003208DF8050069460148FFF764FF1CBD92
:101780000004024010B5424800780A2830DA404888
:10179000007800282CDD3F4800684FF41661B0FB4C
:1017A000F1F201FB12003A4909784900C1EB01113D
:1017B00001EB8101B0EB410F27D8364800684FF4A8
:1017C0001661B0FBF1F201FB120020B90221324890
:1017D000FFF7AFFF19E02F4800689621B0FBF1F248
:1017E00001FB120088B902212B48FFF7A4FF0CE08F
:1017F000274800780A2804DB02212748FFF797FFD3
:1018000003E002212448FFF794FF244800780A28C7
:1018100030DA2248007800282CDD1E4800684FF49A
:101820001661B0FBF1F201FB12001C490978490076
:10183000C1EB011101EB8101B0EB410F27D8154835
:1018400000684FF41661B0FBF1F201FB120020B901
:1018500001211148FFF76DFF19E00E48006896213D
:10186000B0FBF1F201FB120088B901210A48FFF731
:1018700062FF0CE0094800780A2804DB01210648D1
:10188000FFF755FF03E001210348FFF752FF10BDAA
:1018900058440020C842002000080240594400205B
:1018A0000A2801DD0A2200E00246054B1A700A29C7
:1018B00001DD0A2200E00A46024B1A707047000060
:1018C00058440020594400201CB50121042000F098
:1018D000B1FE0320009001208DF8040000208DF857
:1018E000060003208DF8050069460648FFF7ABFEA9
:1018F00002210448FFF71DFF01210248FFF719FFED
:101900001CBD0000000802401CB50121042000F0AD
:1019100091FE2020009001208DF8040000208DF819
:10192000060003208DF8050069460448FFF78BFE8A
:1019300020210248FFF7FBFE1CBD0000000802400A
:1019400001884FF6FE72914202DA0188491C01803B
:101950007047034602EB82004000984202DA012001
:10196000087001E0002008700878704700210180AD
:10197000704700BFFEE7000001461E480068401C9B
:101980001C4A10601046007800F0010068BB1A4A3B
:101990001288083A10B2002802DA00F1090200E0C9
:1019A000024610B2154A32F810208A1A12B2144BAD
:1019B0001A80114A1288521C12B20F4B1A801A4612
:1019C000B2F90020082A04DD1A46B2F90020093ACB
:1019D00002E0094AB2F9002012B2074B1A80074A06
:1019E000B3F9003022F8131000BF0548B0F9000029
:1019F00070470000A04400209C440020D2D3012066
:101A0000A44400207047000070B5002100230F227D
:101A1000C4781CB3174C246804F4E064C4F5E06493
:101A2000C4F30721C1F10404E3B20A4144789C40A5
:101A3000E1B28478144021430C07210E0E4C057846
:101A40006155047804F01F050124AC4005786D1140
:101A5000AD0005F1E025C5F8004109E0047804F087
:101A60001F050124AC40054D0678761145F8264047
:101A700070BD00000CED00E000E400E080E100E05B
:101A800002490143024A1160704700000000FA0554
:101A90000CED00E0F0B50446B1F5AF7F01DD0020AC
:101AA000F0BD00221EE0002019E0072314E002EB45
:101AB000420525442D5C1D4105F00105124E755D62
:101AC00002EB4206F60006EBC006C3F107073E44F0
:101AD0000E4F27F816505B1E002BE8DA401C032837
:101AE000E3DB521C8A42DEDB002001EB4102D20024
:101AF000064B23F8120001EB4100012202EBC0006B
:101B0000034A10600120CBE7C0390008B80000206C
:101B10005C420020F0B50446B1F5AF7F01DD002046
:101B2000F0BD00221EE0002019E0072314E002EBC4
:101B3000420525442D5C1D4105F00105124E755DE1
:101B400002EB4206F60006EBC006C3F107073E446F
:101B50000E4F27F816505B1E002BE8DA401C0328B6
:101B6000E3DB521C8A42DEDB002001EB4102D200A3
:101B7000064B23F8120001EB4100012202EBC000EA
:101B8000034A10600120CBE7C0390008744C0120E3
:101B900060420020F0B50446B1F5AF7F01DD0020C2
:101BA000F0BD00221EE0002019E0072314E002EB44
:101BB000420525442D5C1D4105F00105124E755D61
:101BC00002EB4206F60006EBC006C3F107073E44EF
:101BD0000E4F27F816505B1E002BE8DA401C032836
:101BE000E3DB521C8A42DEDB002001EB4102D20023
:101BF000064B23F8120001EB4100012202EBC0006A
:101C0000034A10600120CBE7C0390008168E01207E
:101C100064420020F0B50446B1F5AF7F01DD00203D
:101C2000F0BD00221EE0002019E0072314E002EBC3
:101C3000420525442D5C1D4105F00105124E755DE0
:101C400002EB4206F60006EBC006C3F107073E446E
:101C50000E4F47F826505B1E002BE8DA401C032885
:101C6000E3DB521C8A42DEDB002001EB4102D200A2
:101C7000064B43F8220001EB4100012202EBC000B9
:101C8000034A10600120CBE7C0390008EC45002072
:101C9000B0000020F0B50446B1F5AF7F01DD0020B3
:101CA000F0BD00221EE0002019E0072314E002EB43
:101CB000420525442D5C1D4105F00105124E755D60
:101CC00002EB4206F60006EBC006C3F107073E44EE
:101CD0000E4F47F826505B1E002BE8DA401C032805
:101CE000E3DB521C8A42DEDB002001EB4102D20022
:101CF000064B43F8220001EB4100012202EBC00039
:101D0000034A10600120CBE7C039000830C9002029
:101D1000B4000020B0EE401A416900EE101AB8EE8F
:101D2000C00AB4EEC10AF1EE10FA06D2416900EE23
:101D3000101AB8EEC00AB0EE401A016900EE101A8F
:101D4000B8EEC00AB4EEC10AF1EE10FA06DD016980
:101D500000EE101AB8EEC00AB0EE401A816A416275
:101D600031EE600A10EE101A816271EE601AC168DD
:101D700000EE101AF4EEC01AF1EE10FA02DDC1689E
:101D8000816213E071EE601AC16800EE101AB1EEC4
:101D9000400AF4EEC01AF1EE10FA07D2C16800EE64
:101DA000101AB1EE400A10EE101A816231EE600A8C
:101DB000B5EEC00AF1EE10FA02DD31EE600A03E082
:101DC00031EE600AB1EE400A816B01EE901AF8EE36
:101DD000E11AB4EEE10AF1EE10FA04D89FED440ADC
:101DE00010EE101A8162816A00EE101AC16A01EECB
:101DF000901A9FED402A02EE210A10EE101AC162DD
:101E0000816A00EE101A416A01EE901A70EE611AB2
:101E1000816800EE101A21EE800A10EE101A01639C
:101E2000C16A00EE101A016A01EE901AB4EEE10ADE
:101E3000F1EE10FA01DD016AC162C16A00EE101A0A
:101E4000016A01EE901AF1EE611AB4EEE10AF1EEC8
:101E500010FA07D2016A00EE101AB1EE400A10EE35
:101E6000101AC162816A00EE101A016801EE901A20
:101E700020EE212AC16A00EE101A416801EE901A84
:101E800000EE212A016B00EE101A32EE000A10EE6D
:101E9000101A4163416B00EE101AC16901EE901AED
:101EA000F8EEE11AB4EEE10AF1EE10FA07DDC169CD
:101EB00000EE101AB8EEC00A10EE101A4163416B22
:101EC00000EE101A816901EE901AF8EEE11AB4EEF4
:101ED000E10AF1EE10FA07D2816900EE101AB8EEAD
:101EE000C00A10EE101A4163416B00EE101A7047E1
:101EF0000000000077BE7F3F10B515491548FFF779
:101F000001FB18B91448007801281ED0012012499D
:101F1000087012490F48FFF7FBF900210D48FFF741
:101F20002BFA0F48008881B20A48FFF76BFB0121AA
:101F30000848FFF721FA4FF08040808A40F0010006
:101F40004FF080418882012010BD0020FCE7000096
:101F500000002020A0600240684200200080202075
:101F6000B000002000B58FB00121480500F062FBF1
:101F7000012001F0D5FB00211A48FFF7FDF91948AF
:101F8000FFF706FA4FF0C06000901748019017481D
:101F900002904020039042F2D1000490002005906E
:101FA0004FF4806006908000079080000890002029
:101FB00009904FF480300A9000200B9003200C9081
:101FC00000200D900E9069460648FFF7EFFA0122B7
:101FD0009102080500F07EFD00210248FFF7CCF9D0
:101FE0000FB000BDA060024038000040EC4500206A
:101FF00010B515491548FFF785FA18B91448007847
:1020000001281ED001201249087012490F48FFF71D
:102010007FF900210D48FFF7AFF90F48008881B222
:102020000A48FFF7EFFA01210848FFF7A5F94FF03A
:102030008040808A40F001004FF08041888201207A
:1020400010BD0020FCE700000008001028600240DE
:102050006942002000880010B400002000B58FB055
:102060000121480500F0E6FA012001F059FB0021AA
:102070001A48FFF781F91948FFF78AF94FF0C06055
:10208000009017480190174802904020039042F2B8
:10209000D1000490002005904FF4806006908000ED
:1020A000079080000890002009904FF480300A903B
:1020B00000200B9003200C9000200D900E9069469C
:1020C0000648FFF773FA0122D102C80400F002FDAE
:1020D00000210248FFF750F90FB000BD2860024010
:1020E0003C00004030C9002000B58BB001210846FB
:1020F00000F0A0FA0121022000F09CFA012108461C
:1021000000F0A8FA0320099002208DF8280003208F
:102110008DF8290009A93C48FFF795FA4FF4406073
:10212000099002208DF8280003208DF8290009A9C4
:102130003648FFF788FA012200213348FFF7CBFA2F
:10214000012211463048FFF7C6FA01220A212F4822
:10215000FFF7C1FA01220B212C48FFF7BCFA12202D
:10216000ADF818000020ADF81A00052007900020F7
:10217000ADF8200006A94FF0804000F01BFE702053
:10218000ADF804000120ADF806000020ADF808000D
:1021900003900220ADF810000020ADF81200ADF859
:1021A00014004FF48070ADF8160001A9800500F00E
:1021B000B5FC01A94FF0804000F0F8FC01A94FF0F8
:1021C000804000F053FD01A94FF0804000F0A8FDD1
:1021D0000821C80600F0E0FC0821C80600F038FD20
:1021E0000821C80600F092FD0821C80600F0D4FDC1
:1021F0000121880700F050FC00214FF0804000F0E2
:102200005DFC0BB000BD0000000002400004024075
:1022100010B515491548FFF775F918B91448007835
:1022200001281ED001201249087012490F48FFF7FB
:102230006FF800210D48FFF79FF80F48008881B222
:102240000A48FFF7DFF901210848FFF795F84FF03A
:102250008040808A40F001004FF080418882012058
:1022600010BD0020FCE7000020000020706002404C
:102270006A420020208000205C42002000B58FB020
:102280000121480500F0D6F9052001F049FA0021A6
:102290001A48FFF771F81948FFF77AF84FF02060F5
:1022A000009017480190174802904020039042F296
:1022B000D1000490002005904FF48060069040000B
:1022C000079080000890002009904FF480300A9019
:1022D00000200B900C900D900E9069460748FFF778
:1022E00065F9012251020648343800F0F3FB002161
:1022F0000248FFF741F80FB000BD000070600240D7
:1023000034040040B800002010B515491548FFF707
:10231000F9F818B91448007801281ED00120124994
:10232000087012490F48FEF7F3FF00210D48FFF730
:1023300023F80F48008881B20A48FFF763F90121AA
:102340000848FFF719F84FF08040808A40F00100FC
:102350004FF080418882012010BD0020FCE7000082
:1023600000080020886002406B42002000880020A6
:102370006042002000B58FB00121480500F05AF9F5
:10238000052001F0CDF900211B48FEF7F5FF1A48A2
:10239000FEF7FEFF4FF020600090184801901848AB
:1023A00002904020039042F2D1000490002005905A
:1023B0004FF4806006904000079080000890002055
:1023C00009904FF480300A9000200B9003200C906D
:1023D00000200D900E9069460748FFF7E7F80122AC
:1023E00091020648383800F075FB00210248FEF7DC
:1023F000C3FF0FB000BD00008860024038040040F9
:10240000744C012010B54FF020511448FFF77AF8B2
:1024100018B91348007801281ED00120104908700F
:1024200010490E48FEF774FF00210C48FEF7A4FF88
:102430000D48008881B20948FFF7E4F801210748F8
:10244000FEF79AFF4FF08040808A40F001004FF085
:1024500080418882012010BD0020FCE7B860024066
:102460006C420020008000286442002000B58FB03C
:102470000121480500F0DEF8012001F051F90021AA
:102480001B48FEF779FF1A48FEF782FF4FF02060E5
:10249000009018480190184802904020039042F2A2
:1024A000D1000490002005904FF480600690400019
:1024B000079080000890002009904FF480300A9027
:1024C00000200B9003200C9000200D900E90694688
:1024D0000748FFF76BF80122D10206483C3800F0AC
:1024E000F9FA00210248FEF747FF0FB000BD0000D7
:1024F000B86002403C040040168E012000B58BB04D
:102500000121084600F096F80121042000F092F81D
:102510000121022000F09EF8C020099002208DF8D1
:10252000280003208DF8290009A93E48FFF78BF801
:102530004FF44070099002208DF8280003208DF898
:10254000290009A93848FFF77EF8022206213548FC
:10255000FFF7C1F8022207213248FFF7BCF8022238
:1025600008213148FFF7B7F8022209212E48FFF76A
:10257000B2F81220ADF818000020ADF81A000520BE
:1025800007900020ADF8200006A9284800F012FCB2
:102590007020ADF804000120ADF806000020ADF871
:1025A000080003900220ADF810000020ADF81200E2
:1025B000ADF814004FF48070ADF8160001A91B4867
:1025C00000F0ACFA01A9194800F0F0FA01A9174887
:1025D00000F04CFB01A9154800F0A2FB08211348AC
:1025E00000F0DAFA0821114800F032FB08210F4808
:1025F00000F08CFB08210D4800F0CEFB01210B48B8
:1026000000F04AFA0021094800F058FA042007496E
:1026100034310860091D0860091D0860091D086043
:102620000BB000BD00000240000802400004004062
:102630007047000029B1064A12680243044B1A6031
:1026400004E0034A12688243014B1A60704700009D
:102650003038024029B1064A12680243044B1A601E
:1026600004E0034A12688243014B1A60704700007D
:102670004038024029B1064A12680243044B1A60EE
:1026800004E0034A12688243014B1A60704700005D
:10269000203802402DE9F04104460D46DDE9066789
:1026A000002000BF60E00021A3F1010C84452EDD75
:1026B00035F8101024E0491CB1F5917F02DB4FF092
:1026C000000C00E08C46614600EB400C12F80CC098
:1026D00001EB410804F808C000EB400C94449CF85E
:1026E00001C001EB4108A04488F801C000EB400C98
:1026F00094449CF802C001EB4108A04488F802C051
:1027000000F1010C35F81CC08C45D4D12BE035F814
:10271000101024E0491CB1F5917F02DB4FF0000C52
:1027200000E08C46614600EB400C12F80CC001EB57
:10273000410804F808C000EB400C94449CF801C028
:1027400001EB4108A04488F801C000EB400C944420
:102750009CF802C001EB4108A04488F802C0B5F81B
:1027600000C08C45D6D1401C98429CDBBDE8F0816E
:102770001CB5384800680F386421B0FBF1F201FB4A
:10278000120030B901213448FFF784F9FFF740FD0A
:102790005EE0304800681E386421B0FBF1F201FBB6
:1027A000120030BB0A20002104232C4ACDE900107E
:1027B0002B492948FFF76EFF40F21F112648FFF70B
:1027C000A9F9FFF7A1FD002010E0254931F810100C
:1027D000491C234A22F81010114631F81010B1F5A7
:1027E000907F02DB002122F81010401C0528ECDB52
:1027F0002EE0184800682D386421B0FBF1F201FB8F
:10280000120030B903211448FFF7C4F9FFF7FAFDAD
:102810001EE0104800683C386421B0FBF1F201FB77
:10282000120030B904210C48FFF7F4F9FFF764FBFC
:102830000EE0084800684B386421B0FBF1F201FB60
:10284000120028B905210448FFF724FAFFF7D0FB4E
:102850001CBD0000C8420020B8CF01206A440020FF
:1028600062440020704700000CB5002001900090E9
:102870003448006840F480303249086000BF314875
:10288000006800F4003000900198401C019000980E
:1028900018B90198B0F5A04FF1D12A48006800F4AA
:1028A000003010B10120009001E00020009000985D
:1028B000012846D123484030006840F0805021492B
:1028C000403108602048006840F440401E490860DC
:1028D0001C48083000681B49083108600846006839
:1028E00040F4004008600846006840F4A0500860CA
:1028F0001648091F0860081F006840F08070091F13
:10290000086000BF0F48006800F000700028F9D090
:1029100040F205700E4908600A480830006820F04F
:1029200003000849083108600846006840F00200CA
:10293000086000BF03480830006800F00C00082859
:10294000F8D10CBD00380240007000400854400728
:10295000003C02400149087070470000C44200205A
:1029600010B5FFF7C1FBFFF7C9FDFFF7FBFAFFF753
:1029700075FB0121880700F0A1F8FFF77FFCFFF746
:10298000F9FCFFF773FD0121014800F097F810BD35
:10299000000400407047000010B51548006840F47E
:1029A0007000134908601348006840F001001149A5
:1029B000086000200F49083108600E4800680E4981
:1029C00008400C4908600D48091D0860081F006890
:1029D00020F48020091F0860002006490C3108609F
:1029E000FFF742FF4FF0006001498039086010BDD9
:1029F00088ED00E000380240FFFFF6FE10300024B2
:102A00001FB501211020FFF725FE36208DF80000AC
:102A100001208DF801008DF802008DF80300684652
:102A2000FEF7F2FF5320ADF804000020ADF80600D9
:102A3000ADF80C004FF47A70029001A9014800F043
:102A4000B9F91FBD0010004010B50121084800F081
:102A50004AF858B10121064800F02DF80121044838
:102A600000F026F8FEF7E6FB00F0E6F910BD0000E6
:102A70000010004010B50121064800F01FF80122A7
:102A80001146044800F040F80121024800F010F817
:102A900010BD00000010004021B1028842F0800209
:102AA000028004E002884FF67F731A40028070476C
:102AB000CA4302827047CA430282704721B102882A
:102AC00042F00102028004E002884FF6FE731A40D1
:102AD000028070471AB183890B43838102E08389A6
:102AE0008B438381704730B50246002000230024C9
:102AF000158A05EA0103958905EA010413B10CB1B1
:102B0000012000E0002030BD1AB183890B4383818E
:102B100002E083898B4383817047000070B50024F5
:102B200000220023058C4FF6FE7635400584028C8A
:102B30008388048B4FF68F752C40B51E2C400D8872
:102B40002C43751E2A408D892A434D882A43104DF7
:102B5000A84202D00F4DA84213D14FF6F7752A4074
:102B6000CD892A434FF6FB752A408D882A434FF6BC
:102B7000FF652B404FF6FF552B400D8A2B434D8AA6
:102B80002B43838004838D684563028470BD0000FD
:102B900000000140000401400A460021018B4FF66D
:102BA000F7731940114301837047000070B500248A
:102BB00000220023058C4FF6EF7635400584028C09
:102BC0008388048B48F6FF752C404FF6FF452C4058
:102BD0000D884FF6FF7606EA05252C434FF6DF7584
:102BE0002A408D8906EA05152A434D8806EA05150F
:102BF0002A43154DA84202D0144DA8421DD14FF6CC
:102C00007F752A40CD894FF6FF7606EA05152A43DF
:102C10004FF6BF752A408D8806EA05152A434FF600
:102C2000FF352B404FF2FF752B400D8A06EA8505D4
:102C30002B434D8A06EA85052B43838004838D68E8
:102C40008563028470BD0000000001400004014063
:102C50000A460021018B4FF2FF7319404FF6FF73B4
:102C600003EA0223194301837047000070B5002472
:102C700000220023058C4FF6FF6635400584028C48
:102C80008388848B4FF68F752C404FF6FC752C4053
:102C90000D882C434FF6FF552A408D894FF6FF765D
:102CA00006EA05252A434D8806EA05252A43154DDF
:102CB000A84202D0144DA8421DD14FF2FF752A4000
:102CC000CD894FF6FF7606EA05252A434FF6FF35F4
:102CD0002A408D8806EA05252A434EF6FF752B40CB
:102CE0004DF6FF752B400D8A06EA05152B434D8ADC
:102CF00006EA05152B43838084838D68C5630284AF
:102D000070BD000000000140000401400A4600219F
:102D1000818B4FF6F7731940114381837047000090
:102D200070B5002200230024058C4EF6FF76354056
:102D30000584038C8488828B48F6FF752A404FF601
:102D4000FF452A400D884FF6FF7606EA05252A43FF
:102D50004DF6FF752B408D8906EA05352B434D88CE
:102D600006EA05352B430A4DA84202D0094DA84278
:102D700008D14BF6FF752C400D8A4FF6FF7606EA18
:102D800085152C43848082838D680564038470BD1F
:102D900000000140000401400A460021818B4FF2EF
:102DA000FF7319404FF6FF7303EA0223194381832F
:102DB0007047000000220288184B98420ED0184B32
:102DC00098420BD0B0F1804F08D0164B984205D0F6
:102DD000154B984202D0154B984204D14FF68F7391
:102DE0001A404B881A43124B984207D0114B984215
:102DF00004D04FF6FF431A400B891A4302804B68F8
:102E0000C3620B880385054B984202D0044B98425D
:102E100001D18B7A03860123838270470000014031
:102E2000000401400004004000080040000C004085
:102E300000100040001400407047000010B540F240
:102E40002551094800F08FF868B140F22551064835
:102E500000F07AF8044800F0B0F804490870084619
:102E6000007800F0C1F810BD004C004008000020C0
:102E700010B540F22441254800F075F8002843D0F1
:102E8000224800882148001D00882148FEF730FBB9
:102E9000E8B900201F49087000211D48FEF76CFAB0
:102EA0001B48FEF721FBC0F164001B490860642049
:102EB00017492839C8620846806A40F400208862B1
:102EC00001211348FEF758FA00F046FC1CE00120EF
:102ED0001049087000210E48FEF74EFA0C48FEF724
:102EE00003FBC0F164000C490860642008492839DC
:102EF000C8620846806A20F40020886201210448E4
:102F0000FEF73AFA00F028FC10BD0000004800402F
:102F1000286002404E000020A800002010B540F2BA
:102F20002551074800F01FF848B1054800F045F862
:102F300004490870024800880148001D008810BD3F
:102F400000140140AD00002010B50022002340F61F
:102F50006A14A14200D100BF0A1201249440A3B216
:102F6000DC43048010BD70B5024600240023002518
:102F7000002040F66A16B14200D100BFC1F34215ED
:102F800001F01F03012606FA03F3012D02D19689F1
:102F9000334006E0022D02D1168A334001E0968AC2
:102FA00033400C12012606FA04F41688344013B19B
:102FB0000CB1012000E0002070BD01468888C0F3FC
:102FC0000800704700BFFEE702E008C8121F08C1F2
:102FD000002AFAD170477047002001E001C1121F9A
:102FE000002AFBD17047000010B50446FD48006878
:102FF00007287DD2DFE800F0107C3BF2F0EF040000
:103000000020F9490880552C02D1F649086002E0F9
:103010000620F449086056E3512C06D0522C0BD000
:10302000532C10D0542C1CD114E00220ED49086020
:103030000020ED49088018E00320EA4908600020DC
:10304000E949088011E00420E64908600020E649CB
:1030500008800AE00520E34908600020E249088072
:1030600003E00620DF49086000BF00BF2BE3DE4815
:103070000088DD490988491CDB4A118009287CD277
:10308000DFE800F005080B0E1114171A1D00D748D1
:1030900004809EE0D64804809BE0D648048098E0F7
:1030A000D548048095E0D548048092E0D448048057
:1030B0008FE0D44804808CE0D348048089E0D34872
:1030C0000480CA480088A630C94909880844C9490B
:1030D00009880844C84909880844C8490988084437
:1030E000C74909880844C74909880844C64900E017
:1030F000E5E209880844C6490880C44800880002FF
:10310000098800EA0120C8B3BE480088BE49098882
:1031100040EA012000EE100AB8EEC00ADFEDBD0A59
:1031200080EE201ABC4880ED031AB0480188B048F0
:10313000007841EA002000B200EE100AB8EEC00AA2
:10314000DFEDB60A80EE201AB3EE000A21EE000A87
:10315000B14880ED040AA7480188A748007841EAF1
:10316000002000B200EE100AF8EEC00A9FEDAB1A84
:1031700080EE810AF3EE000A01E023E01EE020EE7B
:10318000200AA54880ED050A9C4801889C480078E3
:1031900041EA002000B200EE100AB8EEC00ADFEDEE
:1031A0009F0A80EE201AB3EE000A21EE000A9A4828
:1031B00080ED060A06208B49086002E00620894956
:1031C000086006E0062087490860002086490880DC
:1031D00000BF00BF77E2BFE1B3E0FFE782480088AD
:1031E00081490988491C804A118009287ED2DFE87C
:1031F00000F005080B0E1114171A1D0088480480F2
:103200009DE0884804809AE08748048097E08748DA
:10321000048094E08648048091E0864804808EE033
:10322000784804808BE07848048088E07748048000
:103230007B480088A7307B49098808447A49098877
:1032400008447A4909880844794909880844794931
:10325000098808446B49098808446B49098808446F
:103260006B490880694800880002098800EA01204B
:10327000E8B3644800886449098809B240EA01203B
:1032800000EE100AB8EEC00ADFED620A80EE201AE6
:10329000614880ED031A624800886249097840EA73
:1032A000012000B200EE100AB8EEC00ADFED5B0AA2
:1032B00080EE201A9FED600A21EE000A564880ED4C
:1032C000070A594800885949097840EA012000B2A4
:1032D00000EE100AF8EEC00A9FED501A80EE810A47
:1032E000DFED550A20EE200A4B4801E020E01BE00C
:1032F00080ED080A4E4800884E49097840EA0120CE
:1033000000B200EE100AB8EEC00ADFED440A80EE0B
:10331000201A9FED490A21EE400A3F4880ED090A34
:1033200006203049086002E006202E49086006E0C9
:1033300006202C49086000202B49088000BF00BFF0
:10334000C1E12948008828490988491C264A11807A
:1033500009287FD2DFE800F005080B0E1114171AB8
:103360001D0036480480F5E035480480F2E0354819
:103370000480EFE034480480ECE034480480E9E065
:1033800033480480E6E01F480480E3E01E480480E0
:10339000E0E01E48048029480088A83028490988B0
:1033A00008442849098808442749098808442749C6
:1033B00009880844264909880844124909880844AC
:1033C0001149098808441249088010480088000201
:1033D000098800EA0120F0B30A4800880A490988F0
:1033E00009B239E00C00002010000020120000207B
:1033F00018000020140000201A00002016000020F1
:103400001C0000202A0000202C0000204600002084
:10341000480000200000C842A844002000000047E7
:103420001E00002020000020220000202400002098
:1034300026000020280000200000FA442E00002072
:103440003000002032000020340000203600002030
:103450003800002077E072E040EA012000EE100A18
:10346000B8EEC00A5FED150A80EE201A974880ED8D
:10347000031A974800889749098809B240EA012051
:1034800000EE100AF8EEC00A1FED1C1A80EE810A49
:10349000DFED910A20EE200A8C4880ED0B0A8F4860
:1034A00000888F49098809B240EA012000EE100A1D
:1034B000F8EEC00A1FED271A80EE810ADFED860ABA
:1034C00020EE200A814880ED0A0A86480088864955
:1034D000098809B240EA012000EE100AF8EEC00A9D
:1034E0001FED321A80EE810ADFED7B0A20EE200A02
:1034F000764880ED0C0AD0ED0A0AB0EE600AFEF7BD
:1035000083F8724880ED0A0AD0ED0B0AB0EE600A2B
:10351000FEF77AF86D4880ED0B0AD0ED0C0AB0EE9C
:10352000600AFEF771F8B1EE400A684880ED0C0AB7
:103530006E48FEF71BFA06206D49086002E006207F
:103540006B49086006E00620694908600020694967
:10355000088000BF00BFB6E066480088654909885A
:10356000491C644A118009287DD2DFE800F0050873
:103570000B0E1114171A1D005F4804809DE05F4870
:1035800004809AE05E48048097E05E48048094E0FE
:103590005D48048091E05D4804808EE05C480480D2
:1035A0008BE05C48048088E05B48048052480088D7
:1035B000A9305249098808445149098808445149A9
:1035C0000988084450490988084450490988084432
:1035D0004F49098808444F49098808444F490880E1
:1035E0004D4800880002098800EA0120E0B3424803
:1035F00001884248007841EA002000B200EE100A3B
:10360000B8EEC00A1FED7B1AC0EE010A1FED760A64
:1036100020EE800A2D4880ED000A3948018839489B
:10362000007841EA002000B200EE100AB8EEC00AAD
:103630001FED861AC0EE010A1FED810A20EE800AF6
:10364000224880ED010A304801883048007841EA7C
:10365000002000B200EE100AB8EEC00A5FED910A39
:1036600080EE201A01E021E01CE01FED8D0A21EE22
:10367000000A164880ED020A254800882549098875
:1036800009B240EA012000EE100AB8EEC00A5FED70
:103690009F0A80EE201A0D4880ED031A0620144977
:1036A000086002E006201249086006E00620104982
:1036B000086000200F49088000BF00BF03E006201B
:1036C0000B49086000BF00BF10BD0000A8440020E7
:1036D0003200002034000020000034432E0000207F
:1036E000300000203600002038000020F643002083
:1036F0000C000020100000203A0000203C000020B8
:103700003E00002040000020420000204400002035
:103710002A0000202C000020460000204800002045
:1037200010B5002107E04AF2104200BF1300A2F1D9
:103730000102FBD1491C8142F5D310BD10B5002117
:1037400006E0282200BF1300A2F10102FBD1491CB0
:103750008142F6D310BD000010B505247A48FEF76B
:1037600005F97A48007800EBC00101EB00107849B8
:1037700001EB80000119774809880180A01C764977
:1037800008807448008804280FD17048007800EB46
:10379000C00202EB00106E4A02EB80000A4612885B
:1037A000811814226D48FCF70BFD6A480088032835
:1037B00010D16648007800EBC00101EB00106449AD
:1037C00001EB8000644909880844654902680A6081
:1037D000808888805F48008807283ED15B48007851
:1037E00000EBC00101EB0010594901EB80005A4980
:1037F0000988405CC0F300105A49C87053480078EB
:1038000000EBC00101EB0010514901EB800052496F
:103810000988405CC0F34010524948704B4800781A
:1038200000EBC00101EB0010494901EB80004A495F
:103830000988405CC0F380104A498870434800788A
:1038400000EBC00101EB0010414901EB800042494F
:103850000988405CC009434908703E480088022836
:1038600024D13A48007800EBC00101EB0010384940
:1038700001EB800038490988405C3B49097860F3D6
:103880000301394801703148007800EBC00101EBB9
:1038900000102F4901EB80002F490988405C010985
:1038A0003148007861F307102F49087027480078E5
:1038B00000EBC00101EB0010254901EB800001196C
:1038C0002448B1F81D10018004F11F00224908802E
:1038D0002048008808280FD11C48007800EBC0025F
:1038E00002EB00101A4A02EB80000A461288811887
:1038F00010221E48FCF764FC1448007800EBC0015D
:1039000001EB0010124901EB800001191148C98E2A
:10391000018004F13800104908800E480088012811
:1039200010D10A48007800EBC00101EB00100849F3
:1039300001EB80000849098808440D4902680A60C3
:103940004068486010BD0000FC4300204E0000208D
:10395000DC4400205000002054000020BA45002024
:1039600070000020790000206F000020CE4500206C
:10397000670000200120FEF7EDFF4FF4FA70FFF71B
:10398000CFFEFCF7BDFC4FF4FA70FFF7C9FEFDF760
:1039900067FA0FE0FCF764FC07480068074909680C
:1039A000401AB0F5C87F05D3FDF716F90248006844
:1039B00002490860EEE70000C84200200000002035
:1039C00001030000E439000800000020A8440000C2
:1039D000080200086C3B0008A84400204093010046
:1039E000D82F0008C1024D060322D8410310A50DAF
:1039F0000326FFFF12011202120302FF0401FF015E
:103A0000FF01FF01FF01FF01FF01FF01FF01FF01B6
:103A1000FF01FF01FF01FF01FF01FF01FF01FF01A6
:103A2000FF01FF01FF01FF01FF01FF01FF01FF0196
:103A3000FF01FF01FF01FF01FF01FF01FF01FF0186
:103A4000FF01FF01FF01FF01FF01FF01FF01FF0176
:103A5000FF01FF01FF01FF01FF01FF01FF01FF0166
:103A6000FF01FF01FF01FF01FF01FF01FF01FF0156
:103A7000FF01FF01FF01FF01FF01FF01FF01F467EB
:103A8000DC42295C0F3E3008F0419CFFFFFF641BC5
:103A90009CE608221905416EAB964653010113A519
:103AA000020A1E0808225A1A33301BFFFF331D1565
:103AB00012FCEA107A0C101CB82F6F107A56101CEA
:103AC0007EDD67107AAC101572E8760119121A05BE
:103AD00012120212011E0715CF1D491029821A0267
:103AE000856E0715DF7356102A02106C9174F11061
:103AF0002A03106C5CB6E8102A0410160D6BB75A36
:103B00000412041C010B02623B0610C91B2C531447
:103B10001B86012439142AF9152A8D146B8A012871
:103B20002A4714A32D1D12061A11471A0A02294FFB
:103B3000E902012E398531F3C50D0411503E457B54
:103B4000505C143A5E391248129012D8141F01606A
:103B500032434906C959180DCDCCCC3DCDCC4C3E95
:0C3B60009A99993E0C6A3E70C10000006A
:040000050800018965
:00000001FF
