:020000040800F2
:1000000070D701209D010008DD140008C51200080A
:100010008D140008E1030008B72700080000000065
:10002000000000000000000000000000892100081E
:10003000D511000800000000652000088522000896
:10004000B7010008B7010008B7010008B7010008B0
:10005000B7010008B7010008B7010008B7010008A0
:10006000B7010008B7010008B7010008B701000890
:10007000B7010008B7010008B7010008B701000880
:10008000B7010008B7010008B7010008B701000870
:100090009D050008B7010008B7010008B701000876
:1000A000B7010008B7010008B7010008B701000850
:1000B000B7010008B7010008B7010008B701000840
:1000C000B7010008B7010008B7010008B701000830
:1000D000B7010008B7010008B7010008A926000809
:1000E000B7010008B7010008B7010008B701000810
:1000F000B7010008B7010008B7010008B701000800
:10010000B7010008B7010008B7010008B7010008EF
:100110006D260008B70100082D230008B70100086C
:10012000B7010008B7010008F90E0008B701000880
:10013000B7010008B7010008B7010008B7010008BF
:1001400059070008B7010008B7010008B701000807
:10015000B7010008B7010008B701000839270008F7
:10016000B7010008B7010008B7010008B70100088F
:10017000B7010008B7010008B7010008B70100087F
:10018000B7010008B7010008DFF80CD000F02AF82A
:1001900000480047B92C000870D701200648804766
:1001A00006480047FEE7FEE7FEE7FEE7FEE7FEE75C
:1001B000FEE7FEE7FEE7FEE7892200088901000866
:1001C00040EA01039B0703D009E008C9121F08C0D9
:1001D000042AFAD203E011F8013B00F8013B521E59
:1001E000F9D27047064C074D06E0E06840F0010385
:1001F00094E8070098471034AC42F6D3FFF7C8FFE5
:10020000042D0008242D000870B58C1810F8015B2F
:1002100015F0070301D110F8013B2A1106D110F89F
:10022000012B03E010F8016B01F8016B5B1EF9D1A3
:100230002B0705D40023521E0DD401F8013BFAE729
:1002400010F8013BCB1A921C03E013F8015B01F894
:10025000015B521EF9D5A142D8D3002070BD000029
:1002600070B50024094D022615F8340048B1012864
:1002700007D1204600F038FD142002F0A3FC05F859
:100280003460641CE4B2052CEED370BDC042002083
:1002900070470000082A1CD10A785A2A19D14B78D5
:1002A0000C4A43B98B78002B13D1012302F830306C
:1002B0000B785A2B0DD14B78092B0AD1897800295C
:1002C00007D102EBC0014A88521C4A804A680121CA
:1002D00010477047C042002010B54FF4A06001F0F5
:1002E00031F901F081F801F09FF800F0EDFF01F025
:1002F000ADFF4FF47A7002F065FC01F0F3FF00F0FF
:10030000D7F800F0B3F94FF4C86002F05BFCBDE829
:10031000104002F023B8000070B52B4CDFED2B0A23
:100320002B4D94ED010A9FED2B1A012120EE200A9E
:10033000D5ED060A2848F8EEE00A00EE810A84EDC1
:10034000010A00F0A9FF00212070012805D1A27840
:100350001AB994F9012042B16170A07094F90100BA
:10036000012805D0421C03D00BE001226270F4E7A3
:10037000A2684EF66023521CA2609A4202D3404209
:100380006070A160154890F8450001281AD094F9D2
:100390000100C0EB0010400000EE100AE8610A48BE
:1003A000B8EEC00A0C30D4ED010A01F031FABDEE0E
:1003B000C00A002110EE100A6862BDE8704000B269
:1003C00000F008B970BD00004C4200203333333FC9
:1003D000E84300209A99993E000402409C43002083
:1003E000FEE7000010B50168174CA1F201210629B3
:1003F00028D2DFE801F00305080B0E1913481DE0B1
:100400001248801C1AE01148801D17E00F48001D9B
:1004100014E0B0F80B0040BA606100B201F038F8A7
:10042000A0610A48001F09E030F80B1F49BA21609B
:10043000408840BA00B260600448801EBDE81040A9
:1004400001F021B810BD0000E8430020D043002097
:1004500030B4026840F24224A2F2422300F10B01C0
:10046000A2421DD00ADCB2F5A87F10D0B2F5107FF1
:1004700013D05A1C0FD1827A012005E0012B12D033
:10048000022B08D1827A042030BCFFF703BF074853
:100490004168491C416030BC7047827A0020F3E714
:1004A000827A0220F0E7827A0320EDE7A84200205A
:1004B00070B501218AB0084601F0D6FD0121480639
:1004C00001F0DEFD334C09220B21204600F0D4FE62
:1004D00009220C21204600F0CFFE4FF4C0500890B6
:1004E00002208DF8240008A9204600F074FE142094
:1004F0008DF81C0001258DF81D5000248DF81E403C
:100500008DF81F5007A800F0EBFF234E304600F097
:1005100073F9684600F0FAFB8DF806408DF8074045
:1005200008208DF808408DF802408DF80400032162
:100530008DF809408DF803408DF80A408DF80510BC
:10054000ADF800108DF80B506946304600F05EFAA9
:100550008DF816508DF817408DF81850ADF80C40F6
:10056000ADF81040ADF80E40ADF81240ADF81440B3
:100570008DF8195003A800F055F9012202213046E8
:1005800000F03CFA01221146304600F037FA0AB07A
:1005900070BD0000000002400064004010B50C4C2B
:1005A00086B00221204600F0A3F900280ED00221D7
:1005B000204600F0E5F86A460021204600F09AFA4D
:1005C0006846FFF70FFF6846FFF742FF06B010BD11
:1005D0000064004000B585B040F2FF120092002296
:1005E0008DF808208DF8092008238DF80A30030AB9
:1005F0008DF80C00080A8DF80D008DF80E108DF89E
:1006000010208DF811208DF80B308DF80F208DF80B
:1006100012206946024800F089FB05B000BD0000C9
:100620000064004010B50446024600210D4800F069
:1006300061FA2068A0F20120042811D2DFE800F05E
:100640000204070A084807E00748801C04E006483F
:10065000001D01E00448801DBDE8104000F013BFFC
:1006600010BD000000680040C443002070B58AB08F
:100670000121022001F0F8FC0121880601F000FDB3
:10068000334C09220C21204600F0F6FD09220D21F1
:10069000204600F0F1FD4FF44050089002208DF804
:1006A000240008A9204600F096FD40208DF81C008B
:1006B00001258DF81D5000248DF81E408DF81F5027
:1006C00007A800F00DFF234E304600F095F868466D
:1006D00000F01CFB8DF806408DF8074008208DF8CF
:1006E00008408DF802408DF8040003218DF8094080
:1006F0008DF803408DF80A408DF80510ADF8001014
:100700008DF80B506946304600F080F90E208DF8C8
:1007100016008DF817408DF81850ADF80C40ADF864
:100720001040ADF80E40ADF81240ADF814408DF811
:10073000195003A800F076F801220221304600F09B
:100740005DF901221146304600F058F90AB070BD3B
:10075000000402400068004010B5084C86B0022139
:10076000204600F0C5F8002806D00221204600F0FF
:1007700007F86846FFF756FF06B010BD0068004056
:1007800030B5082310240422B1F5007F1DD010DC01
:10079000202929D007DC012921D0042922D00829C9
:1007A00000D1C46030BD402920D0B1F5807FF9D19F
:1007B0000BE00025B1F5004F06D008DCB1F5806FE5
:1007C00003D0B1F5006FEDD18561426030BDB1F568
:1007D000803F0DD0B1F5003FF8D1446030BD0549F0
:1007E000816030BDC36030BD036130BD046130BD88
:1007F000436030BD01010100094910B588424FF046
:10080000010101D14C0601E04FF08064204601F067
:1008100043FC2046BDE81040002101F03DBC000033
:1008200000640040F0B5827A012191402E4A13689D
:1008300043F0010313602C4B1C331C688C431C6079
:10084000294D067B294C0C35A6B92E688E432E60A7
:100850004688C78846EA0746877A04EBC707C7F881
:1008600040660688878846EA0746877A04EBC7070A
:10087000C7F84466067B012E12D12E680E432E6007
:10088000867A056804EBC6064FEA3545C6F8405639
:10089000867A456804EBC6044FEA3545C4F84456E9
:1008A000114CC57A241D002D256806D00D43256006
:1008B0000D4C0589143415B104E08D43F7E7256824
:1008C0008D4325600589012D02D125680D432560E2
:1008D000407B012802D1186808431860106820F096
:1008E00001001060F0BD00000066004000600040A4
:1008F0000246002053690B424AD0B1F5807F3BD0BD
:1009000013DC08292ED007DC012926D0022927D0A4
:1009100004293DD1D0682BE0102925D0202926D0EC
:10092000402935D11069102130E0B1F5004F2BD0AE
:100930000BDCB1F5007F22D0B1F5806F22D0B1F58C
:10094000006F25D19069702120E0B1F5803F11D072
:10095000B1F5003F1CD15068E5E790680D4915E0FE
:10096000D06802E0D068DEE7106903210EE010696C
:1009700008210BE05068FBE79069012106E09069CF
:10098000022103E0906900E05068042100F020BAE1
:1009900070470000010101008168490105D48168A8
:1009A000090102D48068C00001D5012070470020F1
:1009B0007047000010B50F4C0F48217861B1012934
:1009C0000ED0022907D1102304F16002FE2100F0AD
:1009D0000FF90020207010BD064A1023403202E0BB
:1009E000044A10235032FE2100F002F92078401C06
:1009F000F0E70000A842002000640040002A42699D
:100A000001D00A4300E08A434261704710B5036891
:100A1000002223F002030360036843F00103036034
:100A20004FF6FF7300E0521C4468E40701D19A427C
:100A3000F9D14268D2073ED08A79012A02683CD0B7
:100A400022F080020260CA79012A026838D022F0BE
:100A5000400202600A7A012A026834D022F02002A1
:100A600002604A7A012A026830D022F01002026045
:100A70008A7A012A02682CD022F008020260CA7A1F
:100A8000012A026828D022F0040202608A78CC7819
:100A9000920742EA04620C7942EA04424C790988DE
:100AA00042EA0452491E0A43C261016821F0010171
:100AB0000160002114E0002010BD42F08002C1E777
:100AC00042F04002C5E742F02002C9E742F01002BE
:100AD000CDE742F00802D1E742F00402D5E7491C15
:100AE0004268D20701D09942F9D14068C007E2D1EB
:100AF000012010BD10B500EB0113D3F8B04114F084
:100B000004041472D3F8B04134D0E408C2F80440AD
:100B1000D3F8B04104F002045472D3F8B44104F0A5
:100B20000F049472D3F8B441240AD474D3F8B841B2
:100B3000D472D3F8B841240A1473D3F8B841240C02
:100B40005473D3F8B841240E9473D3F8BC41D473D2
:100B5000D3F8BC41240A1474D3F8BC41240C547457
:100B6000D3F8BC311B0E937439B1016941F02001F7
:100B7000016110BD640D1460CAE7C16841F0200135
:100B8000C16010BD30B585B0FE20009000208DF80A
:100B900008008DF8090008208DF80A00124900208D
:100BA0006C4623180A5CDA729DF80A20401C8242C7
:100BB000F7DC0E4D2146284600F0B8F80A2002F076
:100BC0000DF809480021083003E0425C6318491C15
:100BD000DA729DF80A208A42F7DC6946284600F05E
:100BE000A5F805B030BD0000B04200200064004010
:100BF0002DE9F041804686B000208DF808008DF880
:100C0000090008261D46174600918DF80A60044623
:100C100028E0281BC0B2082802D38DF80A6001E042
:100C20008DF80A000020694604E002190B18BA5C2E
:100C3000DA72401C9DF80A208242F6DC002242F261
:100C4000107302E0521C9A4204D84046FFF7A4FEFB
:100C50000028F7D06946404600F068F89DF80A0081
:100C60002044C4B2AC42D4D306B0BDE8F081000049
:100C70001023034A4FF4A0710248FFF7B9BF0000E8
:100C800018430020006400401023034A40F2411141
:100C90000248FFF7ADBF0000284300200064004079
:100CA0001023034A4FF4A1710248FFF7A1BF0000CF
:100CB00038430020006400401023034A40F24311EF
:100CC0000248FFF795BF0000484300200064004041
:100CD0001023034A4FF4A2710248FFF789BF0000B6
:100CE000484300200064004005280ED2DFE800F0F1
:100CF000030507090B00FFF7BBBFFFF7C5BFFFF7F1
:100D0000CFBFFFF7D9BFFFF7E3BF70470021817165
:100D1000C171017241728172C1728170C17003210F
:100D200001710221417101210180704730B50246F5
:100D3000002093685B0108D49068000101D5012070
:100D400003E09068C00037D5022002EB0012D2F811
:100D5000803103F00103C2F880310B7A73B3D2F80B
:100D600080414D681C434B7A43EAC5031C43C2F8DB
:100D700080418B7A03F00F038B72D2F8843123F019
:100D80000F03C2F88431D2F884318C7A2343C2F83D
:100D90008431CB7ACC6843EA0423C2F88831CB7B18
:100DA000096943EA0121C2F88C11D2F8801141F09F
:100DB0000101C2F8801130BD042030BDD2F880316D
:100DC0004C7A23430C8843EA4453C2F88031D0E77D
:100DD000024600200A4200D0012070472DE9F04170
:100DE000234D002305EB430404F11E0000F038FB03
:100DF000E91835F81320E08B3C3100F039FB5B1C1F
:100E00000F2BEFDB1A4E083E3078012818D195F8E9
:100E10003C00012805D1706000207080092001F09D
:100E20000FFA0524A71F281990F83C00012804D1C7
:100E300077607480092001F003FA641C0E2CF2DB49
:100E400095F83D00012811D100F036FA01280BD0A9
:100E500000F032FA40B100F02FFA022804D0082046
:100E6000BDE8F04101F0ECB90320F9E7BDE8F081FD
:100E70009C43002070B51F4C06216068401C6060D8
:100E8000022000F0A5FA60686421B0FBF1F201FBDA
:100E900012014FF4FA6519B9A84201D901F058F9C5
:100EA000FFF79CFF60689621B0FBF1F201FB120096
:100EB00008B900F023FA606841F28831884206D907
:100EC000B0FBF5F105FB110008B9FFF773FD606891
:100ED00044F62061884206D3B0FBF5F105FB110111
:100EE00009B90121A160C00703D1BDE87040FFF737
:100EF00013BA70BD9C42002070B50B4D0B4C2946B7
:100F0000204600F003F900280DD04FF08151204613
:100F100000F010F82946204600F022F8BDE87040A5
:100F2000034800F0B0BA70BD008020104064024059
:100F3000BC430020074A904201D2074801E005481F
:100F40001038064A8B0001EA020101D5C1607047E2
:100F50008160704710640240006002407D0F7D0F89
:100F6000074A904201D2074801E005481038064A76
:100F70008B0001EA020101D5C160704781607047B2
:100F800010640240006002407D0F7D0F002901685F
:100F900002D041F0010101E021F001010160704740
:100FA0002DE9F043016821F0010101600021016099
:100FB00041608160C1600161212141613C493C4A3D
:100FC0003D251039904202D18D60BDE8F083384A4A
:100FD0004FF474661832904201D18E60F5E7344ABE
:100FE0004FF474173032904201D18F60EDE7304AF0
:100FF0004FF0746C4832904202D1C1F808C0E4E767
:101000002B4B2C4A6033984201D1CA60DDE7284C53
:10101000294B7834A04201D1CB60D6E7DFF890802D
:10102000264C08F19008404501D1CC60CDE7DFF8AF
:1010300080804FF03D5908F1A808404502D1C1F821
:101040000C90C2E71E49DFF878800839404501D18D
:101050000D60BAE71A4D1835A84201D10E60B4E709
:10106000174D3035A84201D10F60AEE7144D483519
:10107000A84202D1C1F800C0A7E7114D1049603560
:10108000091FA84201D10A609FE70D4A78329042B9
:1010900001D10B6099E70A4A9032904201D10C606D
:1010A00093E7074AA83290428FD1C1F800908CE7AD
:1010B000106002403D000020400F002000003D2055
:1010C00010640240406880B2704701460020096801
:1010D000090300D5012070470246094B00209A42BF
:1010E00001D2084A01E0064A103A8B0001D5526845
:1010F00000E01268044B1A400A4200D001207047F9
:1011000010640240006002407D0F7D0F30B5104A30
:101110000024904201D20F4B01E00D4B103B0E4AD0
:10112000114205D01E2202EAD12502682A4002E0BF
:10113000406900F08002880001D5586800E0186816
:10114000064B1840084201D002B10124204630BDB0
:1011500010640240006002403C0F3C0F7D0F7D0F89
:1011600030B50368124ACC6813400A682243D1E9BB
:1011700005452C432243CC6922430C6A22434C6A26
:1011800022438C6A22434C6B22438C6B22431A43CA
:101190000260426922F00703D1E90B2422431A437B
:1011A00042610A6942604A6882608968C16030BDF4
:1011B0003F801CF04160704710EE100A03498842DE
:1011C00003DDDFED030A30EE600A704700003443B0
:1011D0000000B4437047F0B50023012403270D68D5
:1011E00004FA03F21540954242D1D0F800C05E00E7
:1011F00007FA06F52CEA050CC0F800C091F804C007
:10120000D0F800E00CFA06FC4CEA0E0CC0F800C066
:1012100091F804C0BCF1010F02D0BCF1020F1FD144
:10122000D0F808C02CEA050CC0F808C091F805C039
:10123000D0F808E00CFA06FC4CEA0E0CC0F808C026
:10124000D0F804C02CEA020CC0F804C0426891F83F
:1012500006C00CFA03FC1FFA8CFC42EA0C02426046
:10126000C268AA43C260CA79C568B2402A43C26054
:101270005B1C102BB3D3F0BD4B07DB0E9A40C908A3
:1012800010B500EB8100016A0F249C40A14301626C
:10129000016A1143016210BD0246002012690A4230
:1012A00000D0012070474183704701837047426935
:1012B0004A404261704700000148007870470000D2
:1012C0009C420020FEE700001CB50121022000F036
:1012D000CBFE002101208DF8041000908DF806004F
:1012E00002208DF8070003208DF8050069460248AA
:1012F000FFF771FF1CBD0000000402402DE9F04122
:10130000304E9627DFF8C080F07A3C01411E2F4D09
:1013100009291AD22968C0EB0010B1FBF4F204FBD2
:10132000121200EB8000B2EB800F19D8B1FBF4F081
:1013300004FB101080B1B1FBF7F007FB101078B977
:1013400002214046FFF7B3FF0AE00A2804D3022136
:101350004046FFF7A8FF03E002214046FFF7A5FF44
:101360003078411E09291CD22968C0EB0010B1FB5E
:10137000F4F204FB121200EB8000B2EB800F1ED8D7
:10138000B1FBF4F004FB101098B1B1FBF7F007FBD0
:101390001010002813D14046BDE8F0410121FFF7AD
:1013A00086BF0A2805D34046BDE8F0410121FFF77A
:1013B0007ABF4046BDE8F0410121FFF776BFBDE8A6
:1013C000F08100001044002000080240A0420020EC
:1013D0000A2800D90A20034A0A29D07200D90A2112
:1013E00011707047104400201CB50121042000F04A
:1013F0003BFE01218DF80410002103208DF806101A
:10140000084C00908DF8050069462046FFF7E3FE82
:1014100002212046FFF749FF01212046FFF745FF43
:101420001CBD0000000802401CB50121042000F092
:101430001BFE2020009001208DF8040000208DF874
:1014400006000320054C8DF8050069462046FFF78D
:10145000C2FE20212046FFF726FF1CBD00080240E7
:1014600001884FF6FE72914201D2491C01807047FB
:1014700002EB8202B0EB420F01D9012000E0002014
:101480000870C0B27047002101807047FEE700007D
:10149000104910B54A68521C4A60D20717D1B1F9F9
:1014A0000020A2F108031BB2002B00DA09331CB2A2
:1014B000094B521C12B233F81440041B4C800A80B2
:1014C000082A00DD093A12B20A8023F81200B1F9A5
:1014D000020010BD384400205ED301207047000098
:1014E00030B50F22C47801780123FCB1144C246874
:1014F00001F1E02104F4E064C4F5E064C4F30724DE
:10150000C4F10405E2404478AC4085781540254399
:101510002A0181F80024007800F01F018B40400967
:10152000800000F1E020C0F8003130BD01F01F0064
:1015300083404809800000F1E020C0F8803130BDD0
:101540000CED00E0024908430249086070470000C2
:101550000000FA050CED00E02DE9F0478246B1F5F8
:10156000AF7F02D90020BDE8F08700231A4C1B4D45
:101570001FE000BF03EB430000EB0A0703EB43004F
:101580004FEAC009072009EBC20600BF17F802C0E6
:10159000C0F107082CFA00FC0CF0010CB04415F85F
:1015A0000CC024F818C0401EF0D5521C032AE9DBF9
:1015B0005B1C8B424FF00002DCDB01EB410004EBD3
:1015C00000110A80012101EBC00003491C390861A8
:1015D00000F058FB0120C6E7A8000020002D0008FD
:1015E0002DE9F0478246B1F5AF7F02D90020BDE872
:1015F000F08700231A4C1B4D1FE000BF03EB430094
:1016000000EB0A0703EB43004FEAC009072009EB90
:10161000C20600BF17F802C0C0F107082CFA00FC90
:101620000CF0010CB04415F80CC024F818C0401E92
:10163000F0D5521C032AE9DB5B1C8B424FF0000201
:10164000DCDB01EB410004EB00110A80012101EB1E
:10165000C0000549486100F087FB0120C7E7000092
:10166000004C0120002D00088C0000202DE9F047DF
:101670008246B1F5AF7F02D90020BDE8F087002394
:101680001A4C1B4D1FE000BF03EB430000EB0A07A1
:1016900003EB43004FEAC009072009EBC20600BF75
:1016A00017F802C0C0F107082CFA00FC0CF0010C7E
:1016B000B04415F80CC024F818C0401EF0D5521CD8
:1016C000032AE9DB5B1C8B424FF00002DCDB01EB01
:1016D000410004EB00110A80012101EBC000054923
:1016E000886100F0B5FB0120C7E70000A28D012052
:1016F000002D00088C0000202DE9F0478246B1F54E
:10170000AF7F02D90020BDE8F08700231A4C1B4DA3
:101710001FE000BF03EB430000EB0A0703EB4300AD
:101720004FEAC009072009EBC20600BF17F802C044
:10173000C0F107082CFA00FC0CF0010CB04415F8BD
:101740000CC044F828C0401EF0D5521C032AE9DB27
:101750005B1C8B424FF00002DCDB01EB410004EB31
:1017600040110A60012101EBC0000549886000F0CA
:101770001DF90120C7E7000078450020002D000872
:101780008C0000202DE9F0478246B1F5AF7F02D9E9
:101790000020BDE8F08700231A4C1B4D1FE000BF5E
:1017A00003EB430000EB0A0703EB43004FEAC009D9
:1017B000072009EBC20600BF17F802C0C0F10708F6
:1017C0002CFA00FC0CF0010CB04415F80CC044F8E5
:1017D00028C0401EF0D5521C032AE9DB5B1C8B425B
:1017E0004FF00002DCDB01EB410004EB40110A602A
:1017F000012101EBC0000549C86000F049F9012052
:10180000C7E70000BCC80020002D00088C000020A5
:1018100010B5416901EE101AB8EEC11AB4EEC01A43
:10182000F1EE10FA03D200EE101AB8EEC00A016908
:1018300001EE101AB8EEC11AB4EEC01AF1EE10FAA9
:1018400003DD00EE101AB8EEC00A836A436230EE80
:10185000601A11EE101A8162C16801EE901AB4EE9E
:10186000E11AF1EE10FA01DD81620FE001EE901A4B
:10187000F1EE611AB4EEE11AF1EE10FA06D201EEC1
:10188000901AF1EE611A11EE901AEDE7B5EEC01A5A
:10189000F1EE10FA01DC30EEC01A816B00EE101A86
:1018A000B8EEC00AB4EEC01AF1EE10FA01D8002169
:1018B0008162826AC16A00EE102A00EE901A9FEDE2
:1018C0003A1A00EE810A00EE903A10EE101A00EE7D
:1018D000102AC162836870EE600A00EE103A20EEB2
:1018E000800A10EE103A00EE101A0363016A00EE4F
:1018F000901AB4EEE00AF1EE10FA00DDC162C46A9B
:1019000000EE101A00EE904AB1EE400AF4EEC00A62
:10191000F1EE10FA06D200EE101AB1EE400A10EE07
:10192000101AC162016800EE102A00EE901AC16A16
:1019300001EE101A416860EE200A00EE101A41EE26
:10194000000A00EE103A30EE800A10EE101A4163E1
:1019500000EE101AC16900EE901AF8EEE00AB4EE3B
:10196000E00AF1EE10FA01DC416B06E000EE101A1D
:10197000B8EEC00A10EE101A416300EE901A8169A9
:1019800000EE101AB8EEC00AF4EEC00AF1EE10FA3A
:1019900006D200EE101AB8EEC00A10EE101A41631B
:1019A000406B00EE100A10BD77BE7F3F70B5144D3E
:1019B00012492846FFF790FB124C10B920780128F5
:1019C0001AD00120207010492846FFF7B3FA0021F1
:1019D0002846FFF7DBFA208981B22846FFF7EAFBA9
:1019E00001212846FFF7D2FA4FF08040818A41F06A
:1019F00001018182012070BD002070BD0000202007
:101A0000A06002408C0000200080202030B5012121
:101A10008FB0480500F028FB012001F0D3F8194DE4
:101A200000212846FFF7B2FA2846FFF7B9FA4FF02F
:101A3000C060009014480190144802904020039028
:101A400004A942F2D10000222C1581E81500A00063
:101A500007908000CDE908028000CDE90A0203204A
:101A6000CDE90C02694628460E92FFF779FB012268
:101A70002146900700F0A0FC00212846FFF786FAD7
:101A80000FB030BDA0600240380000407845002013
:101A900070B5144D12492846FFF71EFB124C10B9C1
:101AA000607801281AD00120607010492846FFF79D
:101AB00041FA00212846FFF769FAA08981B2284639
:101AC000FFF778FB01212846FFF760FA4FF08040CE
:101AD000818A41F001018182012070BD002070BD2A
:101AE00000080010286002408C00002000880010D0
:101AF00010B5012190B0480500F0B6FA012001F0C0
:101B000061F8194C00212046FFF740FA2046FFF704
:101B100047FA4FF0C06000901448019014480290BA
:101B20004020039042F2D1000021CDE904012015AC
:101B30000690800007908000CDE908018000CDE983
:101B40000A010320CDE90C010E9169462046FFF7FA
:101B500007FB0122D102C80400F02EFC0021204620
:101B6000FFF714FA10B010BD286002403C0000409E
:101B7000BCC8002070B501218AB0084600F074FA94
:101B80000121022000F070FA0121084600F078FAE5
:101B900003240225394E8DF8185005948DF819400C
:101BA00005A93046FFF717FB8DF81850A0028DF8F5
:101BB0001940334C059005A92046FFF70CFB012284
:101BC00000213046FFF758FB012211463046FFF74F
:101BD00053FB01220A212046FFF74EFB01220B2175
:101BE0002046FFF749FB1220ADF81C000520002419
:101BF00008908607ADF81E40ADF8244007A930468E
:101C000000F0F4FC7020ADF800000120ADF80200F7
:101C1000ADF810400002ADF80C50ADF81200ADF870
:101C200004400294ADF80E406946304600F0E0FBF7
:101C30006946304600F012FC6946304600F058FC18
:101C40006946304600F098FC0821304600F000FC60
:101C50000821304600F042FC0821304600F086FCA6
:101C60000821304600F0B8FC0121304600F08AFB24
:101C70000021304600F096FB0AB070BD0000024023
:101C80000004024070B5144D12492846FFF724FAAB
:101C9000124C10B9A07801281AD00120A070104968
:101CA0002846FFF747F900212846FFF76FF9208AF9
:101CB00081B22846FFF77EFA01212846FFF766F930
:101CC0004FF08040818A41F001018182012070BD86
:101CD000002070BD20000020706002408C000020B9
:101CE0002080002010B5012190B0480500F0BCF91B
:101CF000052000F067FF194C00212046FFF746F948
:101D00002046FFF74DF94FF02060009014480190F5
:101D1000144802904020039042F2D1000021CDE906
:101D2000040120150690400007908000CDE90801CD
:101D3000C000CDE90A010C910D910E916946204633
:101D4000FFF70EFA064801225102343800F034FB46
:101D500000212046FFF71AF910B010BD7060024054
:101D600034040040A800002070B5144D12492846E4
:101D7000FFF7B2F9124C10B9E07801281AD001200F
:101D8000E07010492846FFF7D5F800212846FFF7F4
:101D9000FDF8A08A81B22846FFF70CFA01212846F7
:101DA000FFF7F4F84FF08040818A41F00101818211
:101DB000012070BD002070BD000800208860024036
:101DC0008C0000200088002030B501218FB048052C
:101DD00000F04AF9052000F0F5FE1A4D00212846D2
:101DE000FFF7D4F82846FFF7DBF84FF020600090AB
:101DF00015480190154802904020039004A942F232
:101E0000D10000222C1581E81500600007908000A9
:101E1000CDE90802C000CDE90A020320CDE90C0299
:101E2000694628460E92FFF79BF907480122214692
:101E3000383800F0C1FA00212846FFF7A7F80FB0A4
:101E400030BD00008860024038040040004C012092
:101E500070B5144D4FF020512846FFF73DF9124C54
:101E600010B9207901281AD0012020710F49284685
:101E7000FFF760F800212846FFF788F8208B81B231
:101E80002846FFF797F901212846FFF77FF84FF022
:101E90008040818A41F001018182012070BD0020D3
:101EA00070BD0000B86002408C0000200080002857
:101EB00030B501218FB0480500F0D6F8012000F0C0
:101EC00081FE1A4D00212846FFF760F82846FFF7EB
:101ED00067F84FF020600090154801901548029077
:101EE0004020039042F2D1000022CDE904022815DF
:101EF0004400CDE90604C000CDE90802C000CDE9E8
:101F00000A020320CDE90C02694628460E92FFF72B
:101F100027F90748012221463C3800F04DFA0021FC
:101F20002846FFF733F80FB030BD0000B86002401C
:101F30003C040040A28D012070B501218AB0084602
:101F400000F092F80121042000F08EF80121022017
:101F500000F096F8C02002253F4E05908DF81850ED
:101F600003248DF8194005A93046FFF734F98DF8A0
:101F7000185020028DF81940384C059005A92046CC
:101F8000FFF729F9022206213046FFF775F90222F0
:101F900007213046FFF770F9022208212046FFF79B
:101FA0006BF9022209212046FFF766F91220ADF8ED
:101FB0001C00002405202A4E0890ADF81E40ADF804
:101FC000244007A9304600F011FB7020ADF8000056
:101FD0000120ADF80200ADF810400002ADF80C5041
:101FE000ADF81200ADF804400294ADF80E40694619
:101FF000304600F0FDF96946304600F02FFA694698
:10200000304600F075FA6946304600F0B5FA08210E
:10201000304600F01DFA0821304600F05FFA082132
:10202000304600F0A3FA0821304600F0D5FA01212D
:10203000304600F0A7F90021304600F0B3F9084916
:10204000042034310860091D0860091D0860091D5D
:1020500008600AB070BD00000000024000080240A5
:102060000004004070470000044A0029116801D0B4
:10207000014300E0814311607047000030380240A6
:10208000044A0029116801D0014300E08143116036
:102090007047000040380240044A0029116801D00E
:1020A000014300E081431160704700002038024086
:1020B0002DE9F041234D01212846FFF7EDF8224C90
:1020C000012805D1A07A18B9A078E0B10020A0704D
:1020D00001212846FFF7E0F8A072A07800221B49F2
:1020E00000284FF4AF7510460FD020245FF07F0614
:1020F00000EB4003401CCC540B44A8429A705E7025
:10210000F6DBBDE8F0810120E1E7602343240CE029
:10211000A0F15F066E2E01D9B84206DD00EB400645
:102120008B550E44B470727007E000EB40064FF41C
:102130008E778B550E44B4707270401CA842E7DB5A
:10214000DFE70000000402401044002044CF0120DB
:1021500010B5FFF7ADFF01210A48FFF7FDF9022195
:102160000848FFF73DFA03210648FFF77FFA0421EC
:102170000448FFF7C1FABDE8104005210148FFF708
:1021800001BB000044CF0120704700000CB50020C7
:102190002749019000900A6842F480320A604FF4A7
:1021A000A0430A6802F400320092019A521C019284
:1021B000009A12B9019A9A42F3D10A68920334D56F
:1021C000012000901A484030026842F080520260BC
:1021D0001848026842F4404202601548083002681C
:1021E0000260026842F400420260026842F4A052B7
:1021F0000260031F104A1A600A6842F080720A6087
:102200000A689201FCD50D4A40F20571116001681F
:1022100021F003010160016841F0020101600168E1
:10222000C1F381010229FAD10CBD00900CBD000060
:10223000003802400070004008544007003C024053
:1022400001490870704700009C42002010B5FFF75C
:1022500091FCFFF771FEFFF7D9FBFFF749FC012165
:10226000880700F09FF8FFF73DFDFFF7ADFDFFF792
:102270001FFEBDE810400121014800F093B80000A6
:102280000004004070470000124810B5016841F496
:10229000700101601048016841F0010101600E4ABF
:1022A00000210832116002680C4B1A400260031DC5
:1022B0000B4A1A60026822F48022026006480C3041
:1022C0000160FFF763FF03494FF000608039086049
:1022D00010BD000088ED00E000380240FFFFF6FE70
:1022E000103000241FB501211020FFF7C9FE362051
:1022F0008DF80C0001208DF80D008DF80E008DF882
:102300000F0003A8FFF7ECF85320ADF80000002001
:10231000ADF80200ADF808004FF47A7001906946FC
:10232000014800F063F91FBD0010004010B50A4CD1
:102330000121204600F048F800280BD0012120465A
:1023400000F02DF80121204600F026F8FEF792FD5E
:1023500000F08AF910BD00000010004010B5084CD4
:102360000121204600F01EF801221146204600F00F
:1023700037F82046BDE81040012100F00DB80000FC
:10238000001000400029018802D041F0800101E0E6
:1023900021F0800101807047C94301827047C94321
:1023A000018270470029018802D041F0010101E05B
:1023B00021F0010101807047002A828901D00A437F
:1023C00000E08A438281704702460020138A928986
:1023D0000B4202EA010202D0002A00D0012070471D
:1023E000002A828901D00A4300E08A438281704733
:1023F00030B5028C22F001020284028C8388048BA7
:1024000022F0020224F073050C882C438D891543B9
:102410004A882A430C4DA84202D00C4DA8420DD147
:1024200022F00805CA8923F440732A4322F00405E8
:102430008A882A430D8A1D434B8A2B438380048359
:1024400089684163028430BD0000014000040140FE
:10245000028B22F008020A430283704770B5028C97
:1024600022F010020284028C8488038B0D8823F4EE
:10247000E6464FF6FF7303EA052535438E8922F0C1
:10248000200203EA061616434A8803EA0212324380
:10249000104EB04202D0104EB04215D122F080064C
:1024A000CA8924F4406403EA0212324322F040064F
:1024B0008A8803EA021232430E8A03EA860626431A
:1024C0004C8A03EA840434438480058389688163E9
:1024D000028470BD0000014000040140028B4FF6F1
:1024E000FF7322F4006203EA012111430183704764
:1024F00070B5028C22F480720284028C8488838BF3
:102500000D8823F073031D4322F400738E894FF668
:10251000FF7202EA06261E434B8802EA0323334376
:10252000104EB04202D0104EB04215D123F40066D6
:10253000CB8924F4405402EA0323334323F4806616
:102540008B8802EA032333430E8A02EA06162643E7
:102550004C8A02EA04143443848085838968C16309
:10256000038470BD0000014000040140828B22F012
:1025700008020A438283704770B5028C22F48052AD
:102580000284048C8288838B0D8823F4E6464FF600
:10259000FF7303EA0525354324F400568C8903EACA
:1025A000043434434E8803EA06362643084CA042DE
:1025B00002D0084CA04205D122F480440A8A03EAE2
:1025C000821222438280858389680164068470BDFB
:1025D0000000014000040140828B4FF6FF7322F49B
:1025E000006203EA012111438183704730B50288FC
:1025F000164B174C98420DD0A0420BD0B0F1804F33
:1026000008D0144DA84205D0134DA84202D0134D56
:10261000A84203D122F070054A882A43104DA842EF
:1026200006D0104DA84203D022F440750A892A43EF
:1026300002804A68C2620A880285984201D0A0429C
:1026400001D1897A01860121818230BD00000140DB
:10265000000401400004004000080040000C00405D
:1026600000100040001400407047000070B50C4C92
:1026700040F225552946204600F07AF800280DD072
:102680002946204600F06EF8204600F090F80549F3
:10269000C0B20870BDE8704000F09EB870BD000088
:1026A000004C0040040000202DE9F0411F4C40F296
:1026B0002441204600F05CF8002835D02088201DF9
:1026C00000881B4E3046FEF700FD194C194D64275B
:1026D000283CC0B10120287000213046FEF756FC8E
:1026E0003046FEF7EFFCC0F16400E860E762A06AE4
:1026F00020F40020A06201213046FEF747FCBDE82F
:10270000F04100F075BA0020287001463046FEF70F
:102710003DFC3046FEF7D6FCC0F16400E860E7629D
:10272000A06A40F40020E5E7BDE8F08100480040E1
:10273000286002404400002010B5084C40F22551AA
:10274000204600F015F8002807D0204600F02FF8AA
:10275000034908702088201D008810BD0014014026
:10276000890000200A0A01219140C9430180704775
:1027700030B501F01F0201240025C1F3421304FA11
:1027800002F2012B0FD0022B0FD0838A4FEA1121C6
:102790000088134204FA01F400EA040001D000B1F9
:1027A0000125284630BD8389F0E7038AEEE780885B
:1027B000C0F308007047FEE702E008C8121F08C116
:1027C000002AFAD170477047002001E001C1121FB2
:1027D000002AFBD1704700002DE9F05FF14C06257F
:1027E0009FEDF11ADFF8C4A3DFEDF10A9FEDF10AC6
:1027F0002646D4F83CC07188728C0B46491C8FB2B7
:10280000318C0FFA82F8002641EA0829BCF1070F43
:102810007DD2DFE80CF00A7C1D88EAF504006680B2
:10282000552800D1E663BDE8F09F512806D0522814
:1028300006D0532808D0542869D107E0022000E0D0
:102840000320E0636680EEE70420FAE70520F8E75E
:102850006780092B72D2DFE803F00507090B0D0F23
:10286000111315002081DEE7E081DCE76081DAE703
:102870002082D8E7A081D6E76082D4E72084D2E71F
:102880006084D0E7A0802389E7899B46DE196389AD
:10289000B4F80C8099463344268A334403EB080C81
:1028A000638A9C448C4494440CF1A60C1FFA8CFC63
:1028B000A4F806C010EA0C0F29D041EA022000EE6D
:1028C000100A4BEA072109B2B8EE400AC0EE011A1D
:1028D00000EE101A49EA062109B2B8EEC00A20EE4D
:1028E000201AB3EE000A21EE001ACAED031A8AED8F
:1028F000041A01EE101A48EA032109B2B8EEC11A0F
:1029000021EE201A21EE001A8AED051A00E0E4E01B
:1029100001EE101AB8EEC11A61EE200A20EE800A0C
:102920008AED060A39E16780092B93D2DFE803F0CC
:10293000080A0C0E101207051400A1E7CEE09DE76F
:10294000A08270E7E0826EE720836CE760836AE72D
:10295000A08368E7E08366E7A080A38AE68A9E46B4
:102960003344278BB346B4F81A803B44A68B4344C8
:1029700003EB060CE38B9C4461441144A73189B2FC
:10298000E1800842CED001EE909A4EEA0B2109B2C6
:10299000F8EEE11A81EE812A01EE101A47EA0821C9
:1029A00009B2B8EEC11A21EE201A21EE001A8AED02
:1029B000032A8AED071A01EE101A46EA032109B22A
:1029C000B8EEC11A61EE200A60EE800ACAED080A6C
:1029D00000EE901AF8EEE00A9FED771A60EE810A99
:1029E00020EE800A8AED090AD7E06780092B75D2AC
:1029F000DFE803F0080A0C0E1012070514003FE789
:102A00006DE03BE7A0840EE7E0840CE720850AE751
:102A1000608508E7A08506E7E08504E7A080A38C31
:102A2000E68C9E46B3463344278D668D3B44B4F80E
:102A30002C80334403EB080CE38D9C446144114427
:102A4000A83189B2E180084247D000EE109A30B236
:102A500047EA0020B8EEC00A5246C0EE011A00EE66
:102A6000100AB8EEC00A20EE200ACAED031A9FED44
:102A7000531A0FFA8BF14EEA012020EE010A8AED7B
:102A80000B0A00EE100A18B248EA002001EE900A84
:102A9000B8EEC00AF8EEE11A20EE200A61EEA00AB4
:102AA00020EE010A60EE810A82ED0A0AC2ED0C0AEC
:102AB000FEF782FB82ED0A0A92ED0B0AFEF77CFB21
:102AC00082ED0B0A92ED0C0AFEF776FBB1EE400A9E
:102AD00082ED0C0A3A48FEF7D6FC5EE05FE06780C4
:102AE000092B5CD2DFE803F007090B0D0F11060577
:102AF0001300C5E6C2E6208695E6608693E6A086CA
:102B000091E6E0868FE620878DE660878BE6A080E1
:102B1000238E668E9E46B3463344B4F83480E68EE8
:102B20004344278F334403EB070C638F9C44614479
:102B30001144A93189B2E18008422ED04EEA0B201F
:102B400000B201EE900A48EA062109B2F8EEE11A55
:102B500061EEA01A61EE801ACAED001A01EE901A19
:102B600047EA032109B2F8EEE11A61EEA01A61EE1C
:102B7000801ACAED011A01EE901AF8EEE11A61EE20
:102B8000A00A20EE800A8AED020A00EE109AB8EE42
:102B9000C00AC0EE010ACAED030AE56343E6E56335
:102BA00050E60000040000200000C842404400201D
:102BB000000000380000FA44000000B80000344370
:102BC000BA43002010B500214AF20E4403E0224629
:102BD000521EFDD2491C8142F9D310BD002103E0F1
:102BE0002622521EFDD2491C8142F9D370470000B3
:102BF00070B52E48FEF747FC2D4C207800EBC00145
:102C000001EB00112B4800EB81050721B5F8050009
:102C1000E0802181042806D003280BD0072810D09B
:102C200002281DD026E02348E91D1422DE30FDF7DE
:102C3000C7FA1FE0D5F807006062B5F80B002085E1
:102C400018E01B49E8791031C0F30012CA70C0F3D4
:102C500040124A70C0F380128A70C009087009E0FF
:102C6000134AE879921C117860F30301000960F3BC
:102C700007111170688C2421E0802181082806D179
:102C80000C4805F124011022F230FDF799FAB5F84D
:102C90003B003D21E0802181012805D155F83D0F01
:102CA00044F82A0F6868606070BD0000C0430020CF
:102CB00044000020744400200120FFF7C1FA4FF4C3
:102CC000FA742046FFF77EFFFDF706FB2046FFF76C
:102CD00079FFFDF757FF084D084C4FF4C87600BF49
:102CE000FDF7BEFA28682168401AB042F8D3FDF714
:102CF00061FE28682060F3E7A04200200000002069
:102D000001030000242D00080000002040440000C2
:102D100008020008882E000840440020309301007B
:102D2000C827000801407206032DFFFF032FA50DE1
:102D300012011202120302FF0401FF01FF01FF0151
:102D4000FF01FF01FF01FF01FF01FF01FF01FF0183
:102D5000FF01FF01FF01FF01FF01FF01FF01FF0173
:102D6000FF01FF01FF01FF01FF01FF01FF01FF0163
:102D7000FF01FF01FF01FF01FF01FF01FF01FF0153
:102D8000FF01FF01FF01FF01FF01FF01FF01FF0143
:102D9000FF01FF01FF01FF01FF01FF01FF01FF0133
:102DA000FF01FF01FF01FF01FF01FF01FF01FF0123
:102DB000FF01FF01FF01FF01FF01EC67DC42295C1D
:102DC0000F3E3008F0419CFFFFFF641B9CE6082289
:102DD0001905216EAB96469B01010C61225A1A33EC
:102DE000181BFFFF10451512FCEA1391020A1E087A
:102DF0000819387A0C381CB82F6F107A56101C7EC0
:102E0000DD67107AAC101C72E876101A05101A02F1
:102E1000781E0715CF1D491029901A02936E0715C9
:102E2000DF7356102A02106C9174F1102A031016E9
:102E30005CB6E85A0412041C010B02503B0610BC9D
:102E40001B2C53141B86012439142AF9152A8D14BE
:102E50006B8A01282A47146B2D1DF612061A11459C
:102E60001A0A02294DE902013B0C10503E45149A02
:102E70005C146982890A180DCDCCCC3DCDCC4C3E7A
:082E80009A99993E0C823E0074
:040000050800018965
:00000001FF
